{
  "contractName": "CodeNFTContract",
  "abi": [
    {
      "inputs": [],
      "stateMutability": "nonpayable",
      "type": "constructor"
    },
    {
      "anonymous": false,
      "inputs": [
        {
          "indexed": true,
          "internalType": "address",
          "name": "owner",
          "type": "address"
        },
        {
          "indexed": true,
          "internalType": "address",
          "name": "approved",
          "type": "address"
        },
        {
          "indexed": true,
          "internalType": "uint256",
          "name": "tokenId",
          "type": "uint256"
        }
      ],
      "name": "Approval",
      "type": "event"
    },
    {
      "anonymous": false,
      "inputs": [
        {
          "indexed": true,
          "internalType": "address",
          "name": "owner",
          "type": "address"
        },
        {
          "indexed": true,
          "internalType": "address",
          "name": "operator",
          "type": "address"
        },
        {
          "indexed": false,
          "internalType": "bool",
          "name": "approved",
          "type": "bool"
        }
      ],
      "name": "ApprovalForAll",
      "type": "event"
    },
    {
      "anonymous": false,
      "inputs": [
        {
          "indexed": true,
          "internalType": "address",
          "name": "from",
          "type": "address"
        },
        {
          "indexed": true,
          "internalType": "address",
          "name": "to",
          "type": "address"
        },
        {
          "indexed": true,
          "internalType": "uint256",
          "name": "tokenId",
          "type": "uint256"
        }
      ],
      "name": "Transfer",
      "type": "event"
    },
    {
      "inputs": [
        {
          "internalType": "address",
          "name": "to",
          "type": "address"
        },
        {
          "internalType": "uint256",
          "name": "tokenId",
          "type": "uint256"
        }
      ],
      "name": "approve",
      "outputs": [],
      "stateMutability": "nonpayable",
      "type": "function"
    },
    {
      "inputs": [
        {
          "internalType": "address",
          "name": "owner",
          "type": "address"
        }
      ],
      "name": "balanceOf",
      "outputs": [
        {
          "internalType": "uint256",
          "name": "",
          "type": "uint256"
        }
      ],
      "stateMutability": "view",
      "type": "function",
      "constant": true
    },
    {
      "inputs": [
        {
          "internalType": "uint256",
          "name": "tokenId",
          "type": "uint256"
        }
      ],
      "name": "getApproved",
      "outputs": [
        {
          "internalType": "address",
          "name": "",
          "type": "address"
        }
      ],
      "stateMutability": "view",
      "type": "function",
      "constant": true
    },
    {
      "inputs": [
        {
          "internalType": "address",
          "name": "owner",
          "type": "address"
        },
        {
          "internalType": "address",
          "name": "operator",
          "type": "address"
        }
      ],
      "name": "isApprovedForAll",
      "outputs": [
        {
          "internalType": "bool",
          "name": "",
          "type": "bool"
        }
      ],
      "stateMutability": "view",
      "type": "function",
      "constant": true
    },
    {
      "inputs": [],
      "name": "name",
      "outputs": [
        {
          "internalType": "string",
          "name": "",
          "type": "string"
        }
      ],
      "stateMutability": "view",
      "type": "function",
      "constant": true
    },
    {
      "inputs": [
        {
          "internalType": "uint256",
          "name": "tokenId",
          "type": "uint256"
        }
      ],
      "name": "ownerOf",
      "outputs": [
        {
          "internalType": "address",
          "name": "",
          "type": "address"
        }
      ],
      "stateMutability": "view",
      "type": "function",
      "constant": true
    },
    {
      "inputs": [
        {
          "internalType": "address",
          "name": "from",
          "type": "address"
        },
        {
          "internalType": "address",
          "name": "to",
          "type": "address"
        },
        {
          "internalType": "uint256",
          "name": "tokenId",
          "type": "uint256"
        }
      ],
      "name": "safeTransferFrom",
      "outputs": [],
      "stateMutability": "nonpayable",
      "type": "function"
    },
    {
      "inputs": [
        {
          "internalType": "address",
          "name": "from",
          "type": "address"
        },
        {
          "internalType": "address",
          "name": "to",
          "type": "address"
        },
        {
          "internalType": "uint256",
          "name": "tokenId",
          "type": "uint256"
        },
        {
          "internalType": "bytes",
          "name": "_data",
          "type": "bytes"
        }
      ],
      "name": "safeTransferFrom",
      "outputs": [],
      "stateMutability": "nonpayable",
      "type": "function"
    },
    {
      "inputs": [
        {
          "internalType": "address",
          "name": "operator",
          "type": "address"
        },
        {
          "internalType": "bool",
          "name": "approved",
          "type": "bool"
        }
      ],
      "name": "setApprovalForAll",
      "outputs": [],
      "stateMutability": "nonpayable",
      "type": "function"
    },
    {
      "inputs": [
        {
          "internalType": "bytes4",
          "name": "interfaceId",
          "type": "bytes4"
        }
      ],
      "name": "supportsInterface",
      "outputs": [
        {
          "internalType": "bool",
          "name": "",
          "type": "bool"
        }
      ],
      "stateMutability": "view",
      "type": "function",
      "constant": true
    },
    {
      "inputs": [],
      "name": "symbol",
      "outputs": [
        {
          "internalType": "string",
          "name": "",
          "type": "string"
        }
      ],
      "stateMutability": "view",
      "type": "function",
      "constant": true
    },
    {
      "inputs": [
        {
          "internalType": "uint256",
          "name": "index",
          "type": "uint256"
        }
      ],
      "name": "tokenByIndex",
      "outputs": [
        {
          "internalType": "uint256",
          "name": "",
          "type": "uint256"
        }
      ],
      "stateMutability": "view",
      "type": "function",
      "constant": true
    },
    {
      "inputs": [
        {
          "internalType": "address",
          "name": "owner",
          "type": "address"
        },
        {
          "internalType": "uint256",
          "name": "index",
          "type": "uint256"
        }
      ],
      "name": "tokenOfOwnerByIndex",
      "outputs": [
        {
          "internalType": "uint256",
          "name": "",
          "type": "uint256"
        }
      ],
      "stateMutability": "view",
      "type": "function",
      "constant": true
    },
    {
      "inputs": [],
      "name": "totalSupply",
      "outputs": [
        {
          "internalType": "uint256",
          "name": "",
          "type": "uint256"
        }
      ],
      "stateMutability": "view",
      "type": "function",
      "constant": true
    },
    {
      "inputs": [
        {
          "internalType": "address",
          "name": "from",
          "type": "address"
        },
        {
          "internalType": "address",
          "name": "to",
          "type": "address"
        },
        {
          "internalType": "uint256",
          "name": "tokenId",
          "type": "uint256"
        }
      ],
      "name": "transferFrom",
      "outputs": [],
      "stateMutability": "nonpayable",
      "type": "function"
    },
    {
      "inputs": [
        {
          "internalType": "address",
          "name": "client",
          "type": "address"
        },
        {
          "internalType": "string",
          "name": "repoURI",
          "type": "string"
        }
      ],
      "name": "mintToken",
      "outputs": [
        {
          "internalType": "uint256",
          "name": "",
          "type": "uint256"
        }
      ],
      "stateMutability": "nonpayable",
      "type": "function"
    },
    {
      "inputs": [
        {
          "internalType": "uint256",
          "name": "tokenId",
          "type": "uint256"
        }
      ],
      "name": "tokenURI",
      "outputs": [
        {
          "internalType": "string",
          "name": "",
          "type": "string"
        }
      ],
      "stateMutability": "view",
      "type": "function",
      "constant": true
    }
  ],
  "bytecode": "0x60806040523480156200001157600080fd5b506040518060400160405280600481526020017f436f6465000000000000000000000000000000000000000000000000000000008152506040518060400160405280600481526020017f434f444500000000000000000000000000000000000000000000000000000000815250816000908051906020019062000096929190620000b8565b508060019080519060200190620000af929190620000b8565b505050620001cd565b828054620000c69062000168565b90600052602060002090601f016020900481019282620000ea576000855562000136565b82601f106200010557805160ff191683800117855562000136565b8280016001018555821562000136579182015b828111156200013557825182559160200191906001019062000118565b5b50905062000145919062000149565b5090565b5b80821115620001645760008160009055506001016200014a565b5090565b600060028204905060018216806200018157607f821691505b602082108114156200019857620001976200019e565b5b50919050565b7f4e487b7100000000000000000000000000000000000000000000000000000000600052602260045260246000fd5b6133c580620001dd6000396000f3fe608060405234801561001057600080fd5b506004361061010b5760003560e01c806342842e0e116100a257806395d89b411161007157806395d89b41146102f0578063a22cb4651461030e578063b88d4fde1461032a578063c87b56dd14610346578063e985e9c5146103765761010b565b806342842e0e146102445780634f6ccce7146102605780636352211e1461029057806370a08231146102c05761010b565b806318160ddd116100de57806318160ddd146101aa57806323b872dd146101c85780632f745c59146101e45780633d02d0c9146102145761010b565b806301ffc9a71461011057806306fdde0314610140578063081812fc1461015e578063095ea7b31461018e575b600080fd5b61012a600480360381019061012591906122d0565b6103a6565b6040516101379190612728565b60405180910390f35b610148610420565b6040516101559190612743565b60405180910390f35b6101786004803603810190610173919061232a565b6104b2565b60405161018591906126c1565b60405180910390f35b6101a860048036038101906101a39190612290565b610537565b005b6101b261064f565b6040516101bf91906129a5565b60405180910390f35b6101e260048036038101906101dd919061211e565b61065c565b005b6101fe60048036038101906101f99190612290565b6106bc565b60405161020b91906129a5565b60405180910390f35b61022e60048036038101906102299190612234565b610761565b60405161023b91906129a5565b60405180910390f35b61025e6004803603810190610259919061211e565b610799565b005b61027a6004803603810190610275919061232a565b6107b9565b60405161028791906129a5565b60405180910390f35b6102aa60048036038101906102a5919061232a565b61082a565b6040516102b791906126c1565b60405180910390f35b6102da60048036038101906102d591906120b1565b6108dc565b6040516102e791906129a5565b60405180910390f35b6102f8610994565b6040516103059190612743565b60405180910390f35b610328600480360381019061032391906121f4565b610a26565b005b610344600480360381019061033f9190612171565b610ba7565b005b610360600480360381019061035b919061232a565b610c09565b60405161036d9190612743565b60405180910390f35b610390600480360381019061038b91906120de565b610d5b565b60405161039d9190612728565b60405180910390f35b60007f780e9d63000000000000000000000000000000000000000000000000000000007bffffffffffffffffffffffffffffffffffffffffffffffffffffffff1916827bffffffffffffffffffffffffffffffffffffffffffffffffffffffff19161480610419575061041882610def565b5b9050919050565b60606000805461042f90612bfb565b80601f016020809104026020016040519081016040528092919081815260200182805461045b90612bfb565b80156104a85780601f1061047d576101008083540402835291602001916104a8565b820191906000526020600020905b81548152906001019060200180831161048b57829003601f168201915b5050505050905090565b60006104bd82610ed1565b6104fc576040517f08c379a00000000000000000000000000000000000000000000000000000000081526004016104f3906128e5565b60405180910390fd5b6004600083815260200190815260200160002060009054906101000a900473ffffffffffffffffffffffffffffffffffffffff169050919050565b60006105428261082a565b90508073ffffffffffffffffffffffffffffffffffffffff168373ffffffffffffffffffffffffffffffffffffffff1614156105b3576040517f08c379a00000000000000000000000000000000000000000000000000000000081526004016105aa90612945565b60405180910390fd5b8073ffffffffffffffffffffffffffffffffffffffff166105d2610f3d565b73ffffffffffffffffffffffffffffffffffffffff1614806106015750610600816105fb610f3d565b610d5b565b5b610640576040517f08c379a000000000000000000000000000000000000000000000000000000000815260040161063790612825565b60405180910390fd5b61064a8383610f45565b505050565b6000600880549050905090565b61066d610667610f3d565b82610ffe565b6106ac576040517f08c379a00000000000000000000000000000000000000000000000000000000081526004016106a390612965565b60405180910390fd5b6106b78383836110dc565b505050565b60006106c7836108dc565b8210610708576040517f08c379a00000000000000000000000000000000000000000000000000000000081526004016106ff90612765565b60405180910390fd5b600660008473ffffffffffffffffffffffffffffffffffffffff1673ffffffffffffffffffffffffffffffffffffffff168152602001908152602001600020600083815260200190815260200160002054905092915050565b600061076d600b611338565b6000610779600b61134e565b9050610785848261135c565b61078f818461137a565b8091505092915050565b6107b483838360405180602001604052806000815250610ba7565b505050565b60006107c361064f565b8210610804576040517f08c379a00000000000000000000000000000000000000000000000000000000081526004016107fb90612985565b60405180910390fd5b6008828154811061081857610817612d94565b5b90600052602060002001549050919050565b6000806002600084815260200190815260200160002060009054906101000a900473ffffffffffffffffffffffffffffffffffffffff169050600073ffffffffffffffffffffffffffffffffffffffff168173ffffffffffffffffffffffffffffffffffffffff1614156108d3576040517f08c379a00000000000000000000000000000000000000000000000000000000081526004016108ca90612865565b60405180910390fd5b80915050919050565b60008073ffffffffffffffffffffffffffffffffffffffff168273ffffffffffffffffffffffffffffffffffffffff16141561094d576040517f08c379a000000000000000000000000000000000000000000000000000000000815260040161094490612845565b60405180910390fd5b600360008373ffffffffffffffffffffffffffffffffffffffff1673ffffffffffffffffffffffffffffffffffffffff168152602001908152602001600020549050919050565b6060600180546109a390612bfb565b80601f01602080910402602001604051908101604052809291908181526020018280546109cf90612bfb565b8015610a1c5780601f106109f157610100808354040283529160200191610a1c565b820191906000526020600020905b8154815290600101906020018083116109ff57829003601f168201915b5050505050905090565b610a2e610f3d565b73ffffffffffffffffffffffffffffffffffffffff168273ffffffffffffffffffffffffffffffffffffffff161415610a9c576040517f08c379a0000000000000000000000000000000000000000000000000000000008152600401610a93906127e5565b60405180910390fd5b8060056000610aa9610f3d565b73ffffffffffffffffffffffffffffffffffffffff1673ffffffffffffffffffffffffffffffffffffffff16815260200190815260200160002060008473ffffffffffffffffffffffffffffffffffffffff1673ffffffffffffffffffffffffffffffffffffffff16815260200190815260200160002060006101000a81548160ff0219169083151502179055508173ffffffffffffffffffffffffffffffffffffffff16610b56610f3d565b73ffffffffffffffffffffffffffffffffffffffff167f17307eab39ab6107e8899845ad3d59bd9653f200f220920489ca2b5937696c3183604051610b9b9190612728565b60405180910390a35050565b610bb8610bb2610f3d565b83610ffe565b610bf7576040517f08c379a0000000000000000000000000000000000000000000000000000000008152600401610bee90612965565b60405180910390fd5b610c03848484846113ee565b50505050565b6060610c1482610ed1565b610c53576040517f08c379a0000000000000000000000000000000000000000000000000000000008152600401610c4a906128c5565b60405180910390fd5b6000600a60008481526020019081526020016000208054610c7390612bfb565b80601f0160208091040260200160405190810160405280929190818152602001828054610c9f90612bfb565b8015610cec5780601f10610cc157610100808354040283529160200191610cec565b820191906000526020600020905b815481529060010190602001808311610ccf57829003601f168201915b505050505090506000610cfd61144a565b9050600081511415610d13578192505050610d56565b600082511115610d48578082604051602001610d3092919061269d565b60405160208183030381529060405292505050610d56565b610d5184611461565b925050505b919050565b6000600560008473ffffffffffffffffffffffffffffffffffffffff1673ffffffffffffffffffffffffffffffffffffffff16815260200190815260200160002060008373ffffffffffffffffffffffffffffffffffffffff1673ffffffffffffffffffffffffffffffffffffffff16815260200190815260200160002060009054906101000a900460ff16905092915050565b60007f80ac58cd000000000000000000000000000000000000000000000000000000007bffffffffffffffffffffffffffffffffffffffffffffffffffffffff1916827bffffffffffffffffffffffffffffffffffffffffffffffffffffffff19161480610eba57507f5b5e139f000000000000000000000000000000000000000000000000000000007bffffffffffffffffffffffffffffffffffffffffffffffffffffffff1916827bffffffffffffffffffffffffffffffffffffffffffffffffffffffff1916145b80610eca5750610ec982611508565b5b9050919050565b60008073ffffffffffffffffffffffffffffffffffffffff166002600084815260200190815260200160002060009054906101000a900473ffffffffffffffffffffffffffffffffffffffff1673ffffffffffffffffffffffffffffffffffffffff1614159050919050565b600033905090565b816004600083815260200190815260200160002060006101000a81548173ffffffffffffffffffffffffffffffffffffffff021916908373ffffffffffffffffffffffffffffffffffffffff160217905550808273ffffffffffffffffffffffffffffffffffffffff16610fb88361082a565b73ffffffffffffffffffffffffffffffffffffffff167f8c5be1e5ebec7d5bd14f71427d1e84f3dd0314c0f7b2291e5b200ac8c7c3b92560405160405180910390a45050565b600061100982610ed1565b611048576040517f08c379a000000000000000000000000000000000000000000000000000000000815260040161103f90612805565b60405180910390fd5b60006110538361082a565b90508073ffffffffffffffffffffffffffffffffffffffff168473ffffffffffffffffffffffffffffffffffffffff1614806110c257508373ffffffffffffffffffffffffffffffffffffffff166110aa846104b2565b73ffffffffffffffffffffffffffffffffffffffff16145b806110d357506110d28185610d5b565b5b91505092915050565b8273ffffffffffffffffffffffffffffffffffffffff166110fc8261082a565b73ffffffffffffffffffffffffffffffffffffffff1614611152576040517f08c379a000000000000000000000000000000000000000000000000000000000815260040161114990612905565b60405180910390fd5b600073ffffffffffffffffffffffffffffffffffffffff168273ffffffffffffffffffffffffffffffffffffffff1614156111c2576040517f08c379a00000000000000000000000000000000000000000000000000000000081526004016111b9906127c5565b60405180910390fd5b6111cd838383611572565b6111d8600082610f45565b6001600360008573ffffffffffffffffffffffffffffffffffffffff1673ffffffffffffffffffffffffffffffffffffffff16815260200190815260200160002060008282546112289190612b11565b925050819055506001600360008473ffffffffffffffffffffffffffffffffffffffff1673ffffffffffffffffffffffffffffffffffffffff168152602001908152602001600020600082825461127f9190612a8a565b92505081905550816002600083815260200190815260200160002060006101000a81548173ffffffffffffffffffffffffffffffffffffffff021916908373ffffffffffffffffffffffffffffffffffffffff160217905550808273ffffffffffffffffffffffffffffffffffffffff168473ffffffffffffffffffffffffffffffffffffffff167fddf252ad1be2c89b69c2b068fc378daa952ba7f163c4a11628f55a4df523b3ef60405160405180910390a4505050565b6001816000016000828254019250508190555050565b600081600001549050919050565b611376828260405180602001604052806000815250611686565b5050565b61138382610ed1565b6113c2576040517f08c379a00000000000000000000000000000000000000000000000000000000081526004016113b990612885565b60405180910390fd5b80600a600084815260200190815260200160002090805190602001906113e9929190611ec5565b505050565b6113f98484846110dc565b611405848484846116e1565b611444576040517f08c379a000000000000000000000000000000000000000000000000000000000815260040161143b90612785565b60405180910390fd5b50505050565b606060405180602001604052806000815250905090565b606061146c82610ed1565b6114ab576040517f08c379a00000000000000000000000000000000000000000000000000000000081526004016114a290612925565b60405180910390fd5b60006114b561144a565b905060008151116114d55760405180602001604052806000815250611500565b806114df84611878565b6040516020016114f092919061269d565b6040516020818303038152906040525b915050919050565b60007f01ffc9a7000000000000000000000000000000000000000000000000000000007bffffffffffffffffffffffffffffffffffffffffffffffffffffffff1916827bffffffffffffffffffffffffffffffffffffffffffffffffffffffff1916149050919050565b61157d8383836119d9565b600073ffffffffffffffffffffffffffffffffffffffff168373ffffffffffffffffffffffffffffffffffffffff1614156115c0576115bb816119de565b6115ff565b8173ffffffffffffffffffffffffffffffffffffffff168373ffffffffffffffffffffffffffffffffffffffff16146115fe576115fd8382611a27565b5b5b600073ffffffffffffffffffffffffffffffffffffffff168273ffffffffffffffffffffffffffffffffffffffff1614156116425761163d81611b94565b611681565b8273ffffffffffffffffffffffffffffffffffffffff168273ffffffffffffffffffffffffffffffffffffffff16146116805761167f8282611c65565b5b5b505050565b6116908383611ce4565b61169d60008484846116e1565b6116dc576040517f08c379a00000000000000000000000000000000000000000000000000000000081526004016116d390612785565b60405180910390fd5b505050565b60006117028473ffffffffffffffffffffffffffffffffffffffff16611eb2565b1561186b578373ffffffffffffffffffffffffffffffffffffffff1663150b7a0261172b610f3d565b8786866040518563ffffffff1660e01b815260040161174d94939291906126dc565b602060405180830381600087803b15801561176757600080fd5b505af192505050801561179857506040513d601f19601f8201168201806040525081019061179591906122fd565b60015b61181b573d80600081146117c8576040519150601f19603f3d011682016040523d82523d6000602084013e6117cd565b606091505b50600081511415611813576040517f08c379a000000000000000000000000000000000000000000000000000000000815260040161180a90612785565b60405180910390fd5b805181602001fd5b63150b7a0260e01b7bffffffffffffffffffffffffffffffffffffffffffffffffffffffff1916817bffffffffffffffffffffffffffffffffffffffffffffffffffffffff191614915050611870565b600190505b949350505050565b606060008214156118c0576040518060400160405280600181526020017f300000000000000000000000000000000000000000000000000000000000000081525090506119d4565b600082905060005b600082146118f25780806118db90612c5e565b915050600a826118eb9190612ae0565b91506118c8565b60008167ffffffffffffffff81111561190e5761190d612dc3565b5b6040519080825280601f01601f1916602001820160405280156119405781602001600182028036833780820191505090505b5090505b600085146119cd576001826119599190612b11565b9150600a856119689190612ca7565b60306119749190612a8a565b60f81b81838151811061198a57611989612d94565b5b60200101907effffffffffffffffffffffffffffffffffffffffffffffffffffffffffffff1916908160001a905350600a856119c69190612ae0565b9450611944565b8093505050505b919050565b505050565b6008805490506009600083815260200190815260200160002081905550600881908060018154018082558091505060019003906000526020600020016000909190919091505550565b60006001611a34846108dc565b611a3e9190612b11565b9050600060076000848152602001908152602001600020549050818114611b23576000600660008673ffffffffffffffffffffffffffffffffffffffff1673ffffffffffffffffffffffffffffffffffffffff168152602001908152602001600020600084815260200190815260200160002054905080600660008773ffffffffffffffffffffffffffffffffffffffff1673ffffffffffffffffffffffffffffffffffffffff168152602001908152602001600020600084815260200190815260200160002081905550816007600083815260200190815260200160002081905550505b6007600084815260200190815260200160002060009055600660008573ffffffffffffffffffffffffffffffffffffffff1673ffffffffffffffffffffffffffffffffffffffff16815260200190815260200160002060008381526020019081526020016000206000905550505050565b60006001600880549050611ba89190612b11565b9050600060096000848152602001908152602001600020549050600060088381548110611bd857611bd7612d94565b5b906000526020600020015490508060088381548110611bfa57611bf9612d94565b5b906000526020600020018190555081600960008381526020019081526020016000208190555060096000858152602001908152602001600020600090556008805480611c4957611c48612d65565b5b6001900381819060005260206000200160009055905550505050565b6000611c70836108dc565b905081600660008573ffffffffffffffffffffffffffffffffffffffff1673ffffffffffffffffffffffffffffffffffffffff168152602001908152602001600020600083815260200190815260200160002081905550806007600084815260200190815260200160002081905550505050565b600073ffffffffffffffffffffffffffffffffffffffff168273ffffffffffffffffffffffffffffffffffffffff161415611d54576040517f08c379a0000000000000000000000000000000000000000000000000000000008152600401611d4b906128a5565b60405180910390fd5b611d5d81610ed1565b15611d9d576040517f08c379a0000000000000000000000000000000000000000000000000000000008152600401611d94906127a5565b60405180910390fd5b611da960008383611572565b6001600360008473ffffffffffffffffffffffffffffffffffffffff1673ffffffffffffffffffffffffffffffffffffffff1681526020019081526020016000206000828254611df99190612a8a565b92505081905550816002600083815260200190815260200160002060006101000a81548173ffffffffffffffffffffffffffffffffffffffff021916908373ffffffffffffffffffffffffffffffffffffffff160217905550808273ffffffffffffffffffffffffffffffffffffffff16600073ffffffffffffffffffffffffffffffffffffffff167fddf252ad1be2c89b69c2b068fc378daa952ba7f163c4a11628f55a4df523b3ef60405160405180910390a45050565b600080823b905060008111915050919050565b828054611ed190612bfb565b90600052602060002090601f016020900481019282611ef35760008555611f3a565b82601f10611f0c57805160ff1916838001178555611f3a565b82800160010185558215611f3a579182015b82811115611f39578251825591602001919060010190611f1e565b5b509050611f479190611f4b565b5090565b5b80821115611f64576000816000905550600101611f4c565b5090565b6000611f7b611f76846129e5565b6129c0565b905082815260208101848484011115611f9757611f96612df7565b5b611fa2848285612bb9565b509392505050565b6000611fbd611fb884612a16565b6129c0565b905082815260208101848484011115611fd957611fd8612df7565b5b611fe4848285612bb9565b509392505050565b600081359050611ffb81613333565b92915050565b6000813590506120108161334a565b92915050565b60008135905061202581613361565b92915050565b60008151905061203a81613361565b92915050565b600082601f83011261205557612054612df2565b5b8135612065848260208601611f68565b91505092915050565b600082601f83011261208357612082612df2565b5b8135612093848260208601611faa565b91505092915050565b6000813590506120ab81613378565b92915050565b6000602082840312156120c7576120c6612e01565b5b60006120d584828501611fec565b91505092915050565b600080604083850312156120f5576120f4612e01565b5b600061210385828601611fec565b925050602061211485828601611fec565b9150509250929050565b60008060006060848603121561213757612136612e01565b5b600061214586828701611fec565b935050602061215686828701611fec565b92505060406121678682870161209c565b9150509250925092565b6000806000806080858703121561218b5761218a612e01565b5b600061219987828801611fec565b94505060206121aa87828801611fec565b93505060406121bb8782880161209c565b925050606085013567ffffffffffffffff8111156121dc576121db612dfc565b5b6121e887828801612040565b91505092959194509250565b6000806040838503121561220b5761220a612e01565b5b600061221985828601611fec565b925050602061222a85828601612001565b9150509250929050565b6000806040838503121561224b5761224a612e01565b5b600061225985828601611fec565b925050602083013567ffffffffffffffff81111561227a57612279612dfc565b5b6122868582860161206e565b9150509250929050565b600080604083850312156122a7576122a6612e01565b5b60006122b585828601611fec565b92505060206122c68582860161209c565b9150509250929050565b6000602082840312156122e6576122e5612e01565b5b60006122f484828501612016565b91505092915050565b60006020828403121561231357612312612e01565b5b60006123218482850161202b565b91505092915050565b6000602082840312156123405761233f612e01565b5b600061234e8482850161209c565b91505092915050565b61236081612b45565b82525050565b61236f81612b57565b82525050565b600061238082612a47565b61238a8185612a5d565b935061239a818560208601612bc8565b6123a381612e06565b840191505092915050565b60006123b982612a52565b6123c38185612a6e565b93506123d3818560208601612bc8565b6123dc81612e06565b840191505092915050565b60006123f282612a52565b6123fc8185612a7f565b935061240c818560208601612bc8565b80840191505092915050565b6000612425602b83612a6e565b915061243082612e17565b604082019050919050565b6000612448603283612a6e565b915061245382612e66565b604082019050919050565b600061246b601c83612a6e565b915061247682612eb5565b602082019050919050565b600061248e602483612a6e565b915061249982612ede565b604082019050919050565b60006124b1601983612a6e565b91506124bc82612f2d565b602082019050919050565b60006124d4602c83612a6e565b91506124df82612f56565b604082019050919050565b60006124f7603883612a6e565b915061250282612fa5565b604082019050919050565b600061251a602a83612a6e565b915061252582612ff4565b604082019050919050565b600061253d602983612a6e565b915061254882613043565b604082019050919050565b6000612560602e83612a6e565b915061256b82613092565b604082019050919050565b6000612583602083612a6e565b915061258e826130e1565b602082019050919050565b60006125a6603183612a6e565b91506125b18261310a565b604082019050919050565b60006125c9602c83612a6e565b91506125d482613159565b604082019050919050565b60006125ec602983612a6e565b91506125f7826131a8565b604082019050919050565b600061260f602f83612a6e565b915061261a826131f7565b604082019050919050565b6000612632602183612a6e565b915061263d82613246565b604082019050919050565b6000612655603183612a6e565b915061266082613295565b604082019050919050565b6000612678602c83612a6e565b9150612683826132e4565b604082019050919050565b61269781612baf565b82525050565b60006126a982856123e7565b91506126b582846123e7565b91508190509392505050565b60006020820190506126d66000830184612357565b92915050565b60006080820190506126f16000830187612357565b6126fe6020830186612357565b61270b604083018561268e565b818103606083015261271d8184612375565b905095945050505050565b600060208201905061273d6000830184612366565b92915050565b6000602082019050818103600083015261275d81846123ae565b905092915050565b6000602082019050818103600083015261277e81612418565b9050919050565b6000602082019050818103600083015261279e8161243b565b9050919050565b600060208201905081810360008301526127be8161245e565b9050919050565b600060208201905081810360008301526127de81612481565b9050919050565b600060208201905081810360008301526127fe816124a4565b9050919050565b6000602082019050818103600083015261281e816124c7565b9050919050565b6000602082019050818103600083015261283e816124ea565b9050919050565b6000602082019050818103600083015261285e8161250d565b9050919050565b6000602082019050818103600083015261287e81612530565b9050919050565b6000602082019050818103600083015261289e81612553565b9050919050565b600060208201905081810360008301526128be81612576565b9050919050565b600060208201905081810360008301526128de81612599565b9050919050565b600060208201905081810360008301526128fe816125bc565b9050919050565b6000602082019050818103600083015261291e816125df565b9050919050565b6000602082019050818103600083015261293e81612602565b9050919050565b6000602082019050818103600083015261295e81612625565b9050919050565b6000602082019050818103600083015261297e81612648565b9050919050565b6000602082019050818103600083015261299e8161266b565b9050919050565b60006020820190506129ba600083018461268e565b92915050565b60006129ca6129db565b90506129d68282612c2d565b919050565b6000604051905090565b600067ffffffffffffffff821115612a00576129ff612dc3565b5b612a0982612e06565b9050602081019050919050565b600067ffffffffffffffff821115612a3157612a30612dc3565b5b612a3a82612e06565b9050602081019050919050565b600081519050919050565b600081519050919050565b600082825260208201905092915050565b600082825260208201905092915050565b600081905092915050565b6000612a9582612baf565b9150612aa083612baf565b9250827fffffffffffffffffffffffffffffffffffffffffffffffffffffffffffffffff03821115612ad557612ad4612cd8565b5b828201905092915050565b6000612aeb82612baf565b9150612af683612baf565b925082612b0657612b05612d07565b5b828204905092915050565b6000612b1c82612baf565b9150612b2783612baf565b925082821015612b3a57612b39612cd8565b5b828203905092915050565b6000612b5082612b8f565b9050919050565b60008115159050919050565b60007fffffffff0000000000000000000000000000000000000000000000000000000082169050919050565b600073ffffffffffffffffffffffffffffffffffffffff82169050919050565b6000819050919050565b82818337600083830152505050565b60005b83811015612be6578082015181840152602081019050612bcb565b83811115612bf5576000848401525b50505050565b60006002820490506001821680612c1357607f821691505b60208210811415612c2757612c26612d36565b5b50919050565b612c3682612e06565b810181811067ffffffffffffffff82111715612c5557612c54612dc3565b5b80604052505050565b6000612c6982612baf565b91507fffffffffffffffffffffffffffffffffffffffffffffffffffffffffffffffff821415612c9c57612c9b612cd8565b5b600182019050919050565b6000612cb282612baf565b9150612cbd83612baf565b925082612ccd57612ccc612d07565b5b828206905092915050565b7f4e487b7100000000000000000000000000000000000000000000000000000000600052601160045260246000fd5b7f4e487b7100000000000000000000000000000000000000000000000000000000600052601260045260246000fd5b7f4e487b7100000000000000000000000000000000000000000000000000000000600052602260045260246000fd5b7f4e487b7100000000000000000000000000000000000000000000000000000000600052603160045260246000fd5b7f4e487b7100000000000000000000000000000000000000000000000000000000600052603260045260246000fd5b7f4e487b7100000000000000000000000000000000000000000000000000000000600052604160045260246000fd5b600080fd5b600080fd5b600080fd5b600080fd5b6000601f19601f8301169050919050565b7f455243373231456e756d657261626c653a206f776e657220696e646578206f7560008201527f74206f6620626f756e6473000000000000000000000000000000000000000000602082015250565b7f4552433732313a207472616e7366657220746f206e6f6e20455243373231526560008201527f63656976657220696d706c656d656e7465720000000000000000000000000000602082015250565b7f4552433732313a20746f6b656e20616c7265616479206d696e74656400000000600082015250565b7f4552433732313a207472616e7366657220746f20746865207a65726f2061646460008201527f7265737300000000000000000000000000000000000000000000000000000000602082015250565b7f4552433732313a20617070726f766520746f2063616c6c657200000000000000600082015250565b7f4552433732313a206f70657261746f7220717565727920666f72206e6f6e657860008201527f697374656e7420746f6b656e0000000000000000000000000000000000000000602082015250565b7f4552433732313a20617070726f76652063616c6c6572206973206e6f74206f7760008201527f6e6572206e6f7220617070726f76656420666f7220616c6c0000000000000000602082015250565b7f4552433732313a2062616c616e636520717565727920666f7220746865207a6560008201527f726f206164647265737300000000000000000000000000000000000000000000602082015250565b7f4552433732313a206f776e657220717565727920666f72206e6f6e657869737460008201527f656e7420746f6b656e0000000000000000000000000000000000000000000000602082015250565b7f45524337323155524953746f726167653a2055524920736574206f66206e6f6e60008201527f6578697374656e7420746f6b656e000000000000000000000000000000000000602082015250565b7f4552433732313a206d696e7420746f20746865207a65726f2061646472657373600082015250565b7f45524337323155524953746f726167653a2055524920717565727920666f722060008201527f6e6f6e6578697374656e7420746f6b656e000000000000000000000000000000602082015250565b7f4552433732313a20617070726f76656420717565727920666f72206e6f6e657860008201527f697374656e7420746f6b656e0000000000000000000000000000000000000000602082015250565b7f4552433732313a207472616e73666572206f6620746f6b656e2074686174206960008201527f73206e6f74206f776e0000000000000000000000000000000000000000000000602082015250565b7f4552433732314d657461646174613a2055524920717565727920666f72206e6f60008201527f6e6578697374656e7420746f6b656e0000000000000000000000000000000000602082015250565b7f4552433732313a20617070726f76616c20746f2063757272656e74206f776e6560008201527f7200000000000000000000000000000000000000000000000000000000000000602082015250565b7f4552433732313a207472616e736665722063616c6c6572206973206e6f74206f60008201527f776e6572206e6f7220617070726f766564000000000000000000000000000000602082015250565b7f455243373231456e756d657261626c653a20676c6f62616c20696e646578206f60008201527f7574206f6620626f756e64730000000000000000000000000000000000000000602082015250565b61333c81612b45565b811461334757600080fd5b50565b61335381612b57565b811461335e57600080fd5b50565b61336a81612b63565b811461337557600080fd5b50565b61338181612baf565b811461338c57600080fd5b5056fea26469706673582212200e8e694b17b97124b3f3a737d120c11eee89f94b7cf382c4bd3f90b4a8a788ce64736f6c63430008060033",
  "immutableReferences": {},
  "source": "pragma solidity ^0.8.0;\n\nimport \"@openzeppelin/contracts/token/ERC721/extensions/ERC721Enumerable.sol\";\nimport \"@openzeppelin/contracts/utils/Counters.sol\";\n\ncontract CodeNFTContract is ERC721Enumerable {\n    using Strings for uint256;\n    mapping(uint256 => string) private _tokenURIs;\n\n    using Counters for Counters.Counter;\n    Counters.Counter private _tokenIds;\n\n    constructor() ERC721(\"Code\", \"CODE\") {}\n\n    function mintToken(address client, string memory repoURI)\n        public\n        returns (uint256)\n    {\n        _tokenIds.increment();\n\n        uint256 id = _tokenIds.current();\n        _safeMint(client, id);\n        _setTokenURI(id, repoURI);\n\n        return id;\n    }\n\n    function tokenURI(uint256 tokenId)\n        public\n        view\n        virtual\n        override\n        returns (string memory)\n    {\n        require(\n            _exists(tokenId),\n            \"ERC721URIStorage: URI query for nonexistent token\"\n        );\n\n        string memory _tokenURI = _tokenURIs[tokenId];\n        string memory base = _baseURI();\n\n        if (bytes(base).length == 0) {\n            return _tokenURI;\n        }\n        if (bytes(_tokenURI).length > 0) {\n            return string(abi.encodePacked(base, _tokenURI));\n        }\n\n        return super.tokenURI(tokenId);\n    }\n\n    function _setTokenURI(uint256 tokenId, string memory _tokenURI)\n        internal\n        virtual\n    {\n        require(\n            _exists(tokenId),\n            \"ERC721URIStorage: URI set of nonexistent token\"\n        );\n        _tokenURIs[tokenId] = _tokenURI;\n    }\n\n    function _burn(uint256 tokenId) internal virtual override {\n        super._burn(tokenId);\n\n        if (bytes(_tokenURIs[tokenId]).length != 0) {\n            delete _tokenURIs[tokenId];\n        }\n    }\n}\n",
  "sourcePath": "/Users/maadhav/Documents/web3Projects/codenft/contracts/CodeNFTContract.sol",
  "compiler": {
    "name": "solc",
    "version": "0.8.6+commit.11564f7e.Emscripten.clang"
  },
  "schemaVersion": "3.4.1",
  "updatedAt": "2021-07-22T05:51:42.129Z",
  "networkType": "ethereum",
  "devdoc": {
    "kind": "dev",
    "methods": {
      "approve(address,uint256)": {
        "details": "See {IERC721-approve}."
      },
      "balanceOf(address)": {
        "details": "See {IERC721-balanceOf}."
      },
      "getApproved(uint256)": {
        "details": "See {IERC721-getApproved}."
      },
      "isApprovedForAll(address,address)": {
        "details": "See {IERC721-isApprovedForAll}."
      },
      "name()": {
        "details": "See {IERC721Metadata-name}."
      },
      "ownerOf(uint256)": {
        "details": "See {IERC721-ownerOf}."
      },
      "safeTransferFrom(address,address,uint256)": {
        "details": "See {IERC721-safeTransferFrom}."
      },
      "safeTransferFrom(address,address,uint256,bytes)": {
        "details": "See {IERC721-safeTransferFrom}."
      },
      "setApprovalForAll(address,bool)": {
        "details": "See {IERC721-setApprovalForAll}."
      },
      "supportsInterface(bytes4)": {
        "details": "See {IERC165-supportsInterface}."
      },
      "symbol()": {
        "details": "See {IERC721Metadata-symbol}."
      },
      "tokenByIndex(uint256)": {
        "details": "See {IERC721Enumerable-tokenByIndex}."
      },
      "tokenOfOwnerByIndex(address,uint256)": {
        "details": "See {IERC721Enumerable-tokenOfOwnerByIndex}."
      },
      "tokenURI(uint256)": {
        "details": "See {IERC721Metadata-tokenURI}."
      },
      "totalSupply()": {
        "details": "See {IERC721Enumerable-totalSupply}."
      },
      "transferFrom(address,address,uint256)": {
        "details": "See {IERC721-transferFrom}."
      }
    },
    "version": 1
  },
  "userdoc": {
    "kind": "user",
    "methods": {},
    "version": 1
  }
}