{
  "contractName": "CodeNFT",
  "abi": [
    {
      "inputs": [],
      "stateMutability": "nonpayable",
      "type": "constructor"
    },
    {
      "anonymous": false,
      "inputs": [
        {
          "indexed": true,
          "internalType": "address",
          "name": "owner",
          "type": "address"
        },
        {
          "indexed": true,
          "internalType": "address",
          "name": "approved",
          "type": "address"
        },
        {
          "indexed": true,
          "internalType": "uint256",
          "name": "tokenId",
          "type": "uint256"
        }
      ],
      "name": "Approval",
      "type": "event"
    },
    {
      "anonymous": false,
      "inputs": [
        {
          "indexed": true,
          "internalType": "address",
          "name": "owner",
          "type": "address"
        },
        {
          "indexed": true,
          "internalType": "address",
          "name": "operator",
          "type": "address"
        },
        {
          "indexed": false,
          "internalType": "bool",
          "name": "approved",
          "type": "bool"
        }
      ],
      "name": "ApprovalForAll",
      "type": "event"
    },
    {
      "anonymous": false,
      "inputs": [
        {
          "indexed": true,
          "internalType": "address",
          "name": "from",
          "type": "address"
        },
        {
          "indexed": true,
          "internalType": "address",
          "name": "to",
          "type": "address"
        },
        {
          "indexed": true,
          "internalType": "uint256",
          "name": "tokenId",
          "type": "uint256"
        }
      ],
      "name": "Transfer",
      "type": "event"
    },
    {
      "inputs": [
        {
          "internalType": "address",
          "name": "to",
          "type": "address"
        },
        {
          "internalType": "uint256",
          "name": "tokenId",
          "type": "uint256"
        }
      ],
      "name": "approve",
      "outputs": [],
      "stateMutability": "nonpayable",
      "type": "function"
    },
    {
      "inputs": [
        {
          "internalType": "address",
          "name": "owner",
          "type": "address"
        }
      ],
      "name": "balanceOf",
      "outputs": [
        {
          "internalType": "uint256",
          "name": "",
          "type": "uint256"
        }
      ],
      "stateMutability": "view",
      "type": "function"
    },
    {
      "inputs": [
        {
          "internalType": "uint256",
          "name": "tokenId",
          "type": "uint256"
        }
      ],
      "name": "getApproved",
      "outputs": [
        {
          "internalType": "address",
          "name": "",
          "type": "address"
        }
      ],
      "stateMutability": "view",
      "type": "function"
    },
    {
      "inputs": [
        {
          "internalType": "address",
          "name": "owner",
          "type": "address"
        },
        {
          "internalType": "address",
          "name": "operator",
          "type": "address"
        }
      ],
      "name": "isApprovedForAll",
      "outputs": [
        {
          "internalType": "bool",
          "name": "",
          "type": "bool"
        }
      ],
      "stateMutability": "view",
      "type": "function"
    },
    {
      "inputs": [],
      "name": "name",
      "outputs": [
        {
          "internalType": "string",
          "name": "",
          "type": "string"
        }
      ],
      "stateMutability": "view",
      "type": "function"
    },
    {
      "inputs": [
        {
          "internalType": "uint256",
          "name": "tokenId",
          "type": "uint256"
        }
      ],
      "name": "ownerOf",
      "outputs": [
        {
          "internalType": "address",
          "name": "",
          "type": "address"
        }
      ],
      "stateMutability": "view",
      "type": "function"
    },
    {
      "inputs": [
        {
          "internalType": "address",
          "name": "from",
          "type": "address"
        },
        {
          "internalType": "address",
          "name": "to",
          "type": "address"
        },
        {
          "internalType": "uint256",
          "name": "tokenId",
          "type": "uint256"
        }
      ],
      "name": "safeTransferFrom",
      "outputs": [],
      "stateMutability": "nonpayable",
      "type": "function"
    },
    {
      "inputs": [
        {
          "internalType": "address",
          "name": "from",
          "type": "address"
        },
        {
          "internalType": "address",
          "name": "to",
          "type": "address"
        },
        {
          "internalType": "uint256",
          "name": "tokenId",
          "type": "uint256"
        },
        {
          "internalType": "bytes",
          "name": "_data",
          "type": "bytes"
        }
      ],
      "name": "safeTransferFrom",
      "outputs": [],
      "stateMutability": "nonpayable",
      "type": "function"
    },
    {
      "inputs": [
        {
          "internalType": "address",
          "name": "operator",
          "type": "address"
        },
        {
          "internalType": "bool",
          "name": "approved",
          "type": "bool"
        }
      ],
      "name": "setApprovalForAll",
      "outputs": [],
      "stateMutability": "nonpayable",
      "type": "function"
    },
    {
      "inputs": [
        {
          "internalType": "bytes4",
          "name": "interfaceId",
          "type": "bytes4"
        }
      ],
      "name": "supportsInterface",
      "outputs": [
        {
          "internalType": "bool",
          "name": "",
          "type": "bool"
        }
      ],
      "stateMutability": "view",
      "type": "function"
    },
    {
      "inputs": [],
      "name": "symbol",
      "outputs": [
        {
          "internalType": "string",
          "name": "",
          "type": "string"
        }
      ],
      "stateMutability": "view",
      "type": "function"
    },
    {
      "inputs": [
        {
          "internalType": "uint256",
          "name": "tokenId",
          "type": "uint256"
        }
      ],
      "name": "tokenURI",
      "outputs": [
        {
          "internalType": "string",
          "name": "",
          "type": "string"
        }
      ],
      "stateMutability": "view",
      "type": "function"
    },
    {
      "inputs": [
        {
          "internalType": "address",
          "name": "from",
          "type": "address"
        },
        {
          "internalType": "address",
          "name": "to",
          "type": "address"
        },
        {
          "internalType": "uint256",
          "name": "tokenId",
          "type": "uint256"
        }
      ],
      "name": "transferFrom",
      "outputs": [],
      "stateMutability": "nonpayable",
      "type": "function"
    },
    {
      "inputs": [
        {
          "internalType": "address",
          "name": "marketplaceAddress",
          "type": "address"
        },
        {
          "internalType": "string",
          "name": "tokenURI",
          "type": "string"
        }
      ],
      "name": "createToken",
      "outputs": [
        {
          "internalType": "uint256",
          "name": "",
          "type": "uint256"
        }
      ],
      "stateMutability": "nonpayable",
      "type": "function"
    },
    {
      "inputs": [],
      "name": "getLatestTokenId",
      "outputs": [
        {
          "internalType": "uint256",
          "name": "",
          "type": "uint256"
        }
      ],
      "stateMutability": "view",
      "type": "function"
    }
  ],
  "bytecode": "0x60806040523480156200001157600080fd5b506040518060400160405280600881526020017f436f6465204e46540000000000000000000000000000000000000000000000008152506040518060400160405280600481526020017f434f444500000000000000000000000000000000000000000000000000000000815250816000908051906020019062000096929190620000b8565b508060019080519060200190620000af929190620000b8565b505050620001cd565b828054620000c69062000168565b90600052602060002090601f016020900481019282620000ea576000855562000136565b82601f106200010557805160ff191683800117855562000136565b8280016001018555821562000136579182015b828111156200013557825182559160200191906001019062000118565b5b50905062000145919062000149565b5090565b5b80821115620001645760008160009055506001016200014a565b5090565b600060028204905060018216806200018157607f821691505b602082108114156200019857620001976200019e565b5b50919050565b7f4e487b7100000000000000000000000000000000000000000000000000000000600052602260045260246000fd5b612c4a80620001dd6000396000f3fe608060405234801561001057600080fd5b50600436106100f55760003560e01c806342842e0e11610097578063a22cb46511610066578063a22cb46514610298578063b88d4fde146102b4578063c87b56dd146102d0578063e985e9c514610300576100f5565b806342842e0e146101fe5780636352211e1461021a57806370a082311461024a57806395d89b411461027a576100f5565b8063081812fc116100d3578063081812fc14610178578063095ea7b3146101a857806323b872dd146101c457806325d112a9146101e0576100f5565b806301382807146100fa57806301ffc9a71461012a57806306fdde031461015a575b600080fd5b610114600480360381019061010f9190611c0c565b610330565b60405161012191906122f7565b60405180910390f35b610144600480360381019061013f9190611ca8565b6103d5565b60405161015191906120ba565b60405180910390f35b6101626104b7565b60405161016f91906120d5565b60405180910390f35b610192600480360381019061018d9190611d02565b610549565b60405161019f9190612053565b60405180910390f35b6101c260048036038101906101bd9190611c68565b6105ce565b005b6101de60048036038101906101d99190611af6565b6106e6565b005b6101e8610746565b6040516101f591906122f7565b60405180910390f35b61021860048036038101906102139190611af6565b610757565b005b610234600480360381019061022f9190611d02565b610777565b6040516102419190612053565b60405180910390f35b610264600480360381019061025f9190611a89565b610829565b60405161027191906122f7565b60405180910390f35b6102826108e1565b60405161028f91906120d5565b60405180910390f35b6102b260048036038101906102ad9190611bcc565b610973565b005b6102ce60048036038101906102c99190611b49565b610af4565b005b6102ea60048036038101906102e59190611d02565b610b56565b6040516102f791906120d5565b60405180910390f35b61031a60048036038101906103159190611ab6565b610ca8565b60405161032791906120ba565b60405180910390f35b600082600860006101000a81548173ffffffffffffffffffffffffffffffffffffffff021916908373ffffffffffffffffffffffffffffffffffffffff16021790555061037d6007610d3c565b60006103896007610d52565b90506103953382610d60565b61039f8184610f2e565b6103cb600860009054906101000a900473ffffffffffffffffffffffffffffffffffffffff16826105ce565b8091505092915050565b60007f80ac58cd000000000000000000000000000000000000000000000000000000007bffffffffffffffffffffffffffffffffffffffffffffffffffffffff1916827bffffffffffffffffffffffffffffffffffffffffffffffffffffffff191614806104a057507f5b5e139f000000000000000000000000000000000000000000000000000000007bffffffffffffffffffffffffffffffffffffffffffffffffffffffff1916827bffffffffffffffffffffffffffffffffffffffffffffffffffffffff1916145b806104b057506104af82610fa2565b5b9050919050565b6060600080546104c69061254d565b80601f01602080910402602001604051908101604052809291908181526020018280546104f29061254d565b801561053f5780601f106105145761010080835404028352916020019161053f565b820191906000526020600020905b81548152906001019060200180831161052257829003601f168201915b5050505050905090565b60006105548261100c565b610593576040517f08c379a000000000000000000000000000000000000000000000000000000000815260040161058a90612257565b60405180910390fd5b6004600083815260200190815260200160002060009054906101000a900473ffffffffffffffffffffffffffffffffffffffff169050919050565b60006105d982610777565b90508073ffffffffffffffffffffffffffffffffffffffff168373ffffffffffffffffffffffffffffffffffffffff16141561064a576040517f08c379a0000000000000000000000000000000000000000000000000000000008152600401610641906122b7565b60405180910390fd5b8073ffffffffffffffffffffffffffffffffffffffff16610669611078565b73ffffffffffffffffffffffffffffffffffffffff161480610698575061069781610692611078565b610ca8565b5b6106d7576040517f08c379a00000000000000000000000000000000000000000000000000000000081526004016106ce90612197565b60405180910390fd5b6106e18383611080565b505050565b6106f76106f1611078565b82611139565b610736576040517f08c379a000000000000000000000000000000000000000000000000000000000815260040161072d906122d7565b60405180910390fd5b610741838383611217565b505050565b60006107526007610d52565b905090565b61077283838360405180602001604052806000815250610af4565b505050565b6000806002600084815260200190815260200160002060009054906101000a900473ffffffffffffffffffffffffffffffffffffffff169050600073ffffffffffffffffffffffffffffffffffffffff168173ffffffffffffffffffffffffffffffffffffffff161415610820576040517f08c379a0000000000000000000000000000000000000000000000000000000008152600401610817906121d7565b60405180910390fd5b80915050919050565b60008073ffffffffffffffffffffffffffffffffffffffff168273ffffffffffffffffffffffffffffffffffffffff16141561089a576040517f08c379a0000000000000000000000000000000000000000000000000000000008152600401610891906121b7565b60405180910390fd5b600360008373ffffffffffffffffffffffffffffffffffffffff1673ffffffffffffffffffffffffffffffffffffffff168152602001908152602001600020549050919050565b6060600180546108f09061254d565b80601f016020809104026020016040519081016040528092919081815260200182805461091c9061254d565b80156109695780601f1061093e57610100808354040283529160200191610969565b820191906000526020600020905b81548152906001019060200180831161094c57829003601f168201915b5050505050905090565b61097b611078565b73ffffffffffffffffffffffffffffffffffffffff168273ffffffffffffffffffffffffffffffffffffffff1614156109e9576040517f08c379a00000000000000000000000000000000000000000000000000000000081526004016109e090612157565b60405180910390fd5b80600560006109f6611078565b73ffffffffffffffffffffffffffffffffffffffff1673ffffffffffffffffffffffffffffffffffffffff16815260200190815260200160002060008473ffffffffffffffffffffffffffffffffffffffff1673ffffffffffffffffffffffffffffffffffffffff16815260200190815260200160002060006101000a81548160ff0219169083151502179055508173ffffffffffffffffffffffffffffffffffffffff16610aa3611078565b73ffffffffffffffffffffffffffffffffffffffff167f17307eab39ab6107e8899845ad3d59bd9653f200f220920489ca2b5937696c3183604051610ae891906120ba565b60405180910390a35050565b610b05610aff611078565b83611139565b610b44576040517f08c379a0000000000000000000000000000000000000000000000000000000008152600401610b3b906122d7565b60405180910390fd5b610b5084848484611473565b50505050565b6060610b618261100c565b610ba0576040517f08c379a0000000000000000000000000000000000000000000000000000000008152600401610b9790612237565b60405180910390fd5b6000600660008481526020019081526020016000208054610bc09061254d565b80601f0160208091040260200160405190810160405280929190818152602001828054610bec9061254d565b8015610c395780601f10610c0e57610100808354040283529160200191610c39565b820191906000526020600020905b815481529060010190602001808311610c1c57829003601f168201915b505050505090506000610c4a6114cf565b9050600081511415610c60578192505050610ca3565b600082511115610c95578082604051602001610c7d92919061202f565b60405160208183030381529060405292505050610ca3565b610c9e846114e6565b925050505b919050565b6000600560008473ffffffffffffffffffffffffffffffffffffffff1673ffffffffffffffffffffffffffffffffffffffff16815260200190815260200160002060008373ffffffffffffffffffffffffffffffffffffffff1673ffffffffffffffffffffffffffffffffffffffff16815260200190815260200160002060009054906101000a900460ff16905092915050565b6001816000016000828254019250508190555050565b600081600001549050919050565b600073ffffffffffffffffffffffffffffffffffffffff168273ffffffffffffffffffffffffffffffffffffffff161415610dd0576040517f08c379a0000000000000000000000000000000000000000000000000000000008152600401610dc790612217565b60405180910390fd5b610dd98161100c565b15610e19576040517f08c379a0000000000000000000000000000000000000000000000000000000008152600401610e1090612117565b60405180910390fd5b610e256000838361158d565b6001600360008473ffffffffffffffffffffffffffffffffffffffff1673ffffffffffffffffffffffffffffffffffffffff1681526020019081526020016000206000828254610e7591906123dc565b92505081905550816002600083815260200190815260200160002060006101000a81548173ffffffffffffffffffffffffffffffffffffffff021916908373ffffffffffffffffffffffffffffffffffffffff160217905550808273ffffffffffffffffffffffffffffffffffffffff16600073ffffffffffffffffffffffffffffffffffffffff167fddf252ad1be2c89b69c2b068fc378daa952ba7f163c4a11628f55a4df523b3ef60405160405180910390a45050565b610f378261100c565b610f76576040517f08c379a0000000000000000000000000000000000000000000000000000000008152600401610f6d906121f7565b60405180910390fd5b80600660008481526020019081526020016000209080519060200190610f9d92919061189d565b505050565b60007f01ffc9a7000000000000000000000000000000000000000000000000000000007bffffffffffffffffffffffffffffffffffffffffffffffffffffffff1916827bffffffffffffffffffffffffffffffffffffffffffffffffffffffff1916149050919050565b60008073ffffffffffffffffffffffffffffffffffffffff166002600084815260200190815260200160002060009054906101000a900473ffffffffffffffffffffffffffffffffffffffff1673ffffffffffffffffffffffffffffffffffffffff1614159050919050565b600033905090565b816004600083815260200190815260200160002060006101000a81548173ffffffffffffffffffffffffffffffffffffffff021916908373ffffffffffffffffffffffffffffffffffffffff160217905550808273ffffffffffffffffffffffffffffffffffffffff166110f383610777565b73ffffffffffffffffffffffffffffffffffffffff167f8c5be1e5ebec7d5bd14f71427d1e84f3dd0314c0f7b2291e5b200ac8c7c3b92560405160405180910390a45050565b60006111448261100c565b611183576040517f08c379a000000000000000000000000000000000000000000000000000000000815260040161117a90612177565b60405180910390fd5b600061118e83610777565b90508073ffffffffffffffffffffffffffffffffffffffff168473ffffffffffffffffffffffffffffffffffffffff1614806111fd57508373ffffffffffffffffffffffffffffffffffffffff166111e584610549565b73ffffffffffffffffffffffffffffffffffffffff16145b8061120e575061120d8185610ca8565b5b91505092915050565b8273ffffffffffffffffffffffffffffffffffffffff1661123782610777565b73ffffffffffffffffffffffffffffffffffffffff161461128d576040517f08c379a000000000000000000000000000000000000000000000000000000000815260040161128490612277565b60405180910390fd5b600073ffffffffffffffffffffffffffffffffffffffff168273ffffffffffffffffffffffffffffffffffffffff1614156112fd576040517f08c379a00000000000000000000000000000000000000000000000000000000081526004016112f490612137565b60405180910390fd5b61130883838361158d565b611313600082611080565b6001600360008573ffffffffffffffffffffffffffffffffffffffff1673ffffffffffffffffffffffffffffffffffffffff16815260200190815260200160002060008282546113639190612463565b925050819055506001600360008473ffffffffffffffffffffffffffffffffffffffff1673ffffffffffffffffffffffffffffffffffffffff16815260200190815260200160002060008282546113ba91906123dc565b92505081905550816002600083815260200190815260200160002060006101000a81548173ffffffffffffffffffffffffffffffffffffffff021916908373ffffffffffffffffffffffffffffffffffffffff160217905550808273ffffffffffffffffffffffffffffffffffffffff168473ffffffffffffffffffffffffffffffffffffffff167fddf252ad1be2c89b69c2b068fc378daa952ba7f163c4a11628f55a4df523b3ef60405160405180910390a4505050565b61147e848484611217565b61148a84848484611592565b6114c9576040517f08c379a00000000000000000000000000000000000000000000000000000000081526004016114c0906120f7565b60405180910390fd5b50505050565b606060405180602001604052806000815250905090565b60606114f18261100c565b611530576040517f08c379a000000000000000000000000000000000000000000000000000000000815260040161152790612297565b60405180910390fd5b600061153a6114cf565b9050600081511161155a5760405180602001604052806000815250611585565b8061156484611729565b60405160200161157592919061202f565b6040516020818303038152906040525b915050919050565b505050565b60006115b38473ffffffffffffffffffffffffffffffffffffffff1661188a565b1561171c578373ffffffffffffffffffffffffffffffffffffffff1663150b7a026115dc611078565b8786866040518563ffffffff1660e01b81526004016115fe949392919061206e565b602060405180830381600087803b15801561161857600080fd5b505af192505050801561164957506040513d601f19601f820116820180604052508101906116469190611cd5565b60015b6116cc573d8060008114611679576040519150601f19603f3d011682016040523d82523d6000602084013e61167e565b606091505b506000815114156116c4576040517f08c379a00000000000000000000000000000000000000000000000000000000081526004016116bb906120f7565b60405180910390fd5b805181602001fd5b63150b7a0260e01b7bffffffffffffffffffffffffffffffffffffffffffffffffffffffff1916817bffffffffffffffffffffffffffffffffffffffffffffffffffffffff191614915050611721565b600190505b949350505050565b60606000821415611771576040518060400160405280600181526020017f30000000000000000000000000000000000000000000000000000000000000008152509050611885565b600082905060005b600082146117a357808061178c906125b0565b915050600a8261179c9190612432565b9150611779565b60008167ffffffffffffffff8111156117bf576117be6126e6565b5b6040519080825280601f01601f1916602001820160405280156117f15781602001600182028036833780820191505090505b5090505b6000851461187e5760018261180a9190612463565b9150600a8561181991906125f9565b603061182591906123dc565b60f81b81838151811061183b5761183a6126b7565b5b60200101907effffffffffffffffffffffffffffffffffffffffffffffffffffffffffffff1916908160001a905350600a856118779190612432565b94506117f5565b8093505050505b919050565b600080823b905060008111915050919050565b8280546118a99061254d565b90600052602060002090601f0160209004810192826118cb5760008555611912565b82601f106118e457805160ff1916838001178555611912565b82800160010185558215611912579182015b828111156119115782518255916020019190600101906118f6565b5b50905061191f9190611923565b5090565b5b8082111561193c576000816000905550600101611924565b5090565b600061195361194e84612337565b612312565b90508281526020810184848401111561196f5761196e61271a565b5b61197a84828561250b565b509392505050565b600061199561199084612368565b612312565b9050828152602081018484840111156119b1576119b061271a565b5b6119bc84828561250b565b509392505050565b6000813590506119d381612bb8565b92915050565b6000813590506119e881612bcf565b92915050565b6000813590506119fd81612be6565b92915050565b600081519050611a1281612be6565b92915050565b600082601f830112611a2d57611a2c612715565b5b8135611a3d848260208601611940565b91505092915050565b600082601f830112611a5b57611a5a612715565b5b8135611a6b848260208601611982565b91505092915050565b600081359050611a8381612bfd565b92915050565b600060208284031215611a9f57611a9e612724565b5b6000611aad848285016119c4565b91505092915050565b60008060408385031215611acd57611acc612724565b5b6000611adb858286016119c4565b9250506020611aec858286016119c4565b9150509250929050565b600080600060608486031215611b0f57611b0e612724565b5b6000611b1d868287016119c4565b9350506020611b2e868287016119c4565b9250506040611b3f86828701611a74565b9150509250925092565b60008060008060808587031215611b6357611b62612724565b5b6000611b71878288016119c4565b9450506020611b82878288016119c4565b9350506040611b9387828801611a74565b925050606085013567ffffffffffffffff811115611bb457611bb361271f565b5b611bc087828801611a18565b91505092959194509250565b60008060408385031215611be357611be2612724565b5b6000611bf1858286016119c4565b9250506020611c02858286016119d9565b9150509250929050565b60008060408385031215611c2357611c22612724565b5b6000611c31858286016119c4565b925050602083013567ffffffffffffffff811115611c5257611c5161271f565b5b611c5e85828601611a46565b9150509250929050565b60008060408385031215611c7f57611c7e612724565b5b6000611c8d858286016119c4565b9250506020611c9e85828601611a74565b9150509250929050565b600060208284031215611cbe57611cbd612724565b5b6000611ccc848285016119ee565b91505092915050565b600060208284031215611ceb57611cea612724565b5b6000611cf984828501611a03565b91505092915050565b600060208284031215611d1857611d17612724565b5b6000611d2684828501611a74565b91505092915050565b611d3881612497565b82525050565b611d47816124a9565b82525050565b6000611d5882612399565b611d6281856123af565b9350611d7281856020860161251a565b611d7b81612729565b840191505092915050565b6000611d91826123a4565b611d9b81856123c0565b9350611dab81856020860161251a565b611db481612729565b840191505092915050565b6000611dca826123a4565b611dd481856123d1565b9350611de481856020860161251a565b80840191505092915050565b6000611dfd6032836123c0565b9150611e088261273a565b604082019050919050565b6000611e20601c836123c0565b9150611e2b82612789565b602082019050919050565b6000611e436024836123c0565b9150611e4e826127b2565b604082019050919050565b6000611e666019836123c0565b9150611e7182612801565b602082019050919050565b6000611e89602c836123c0565b9150611e948261282a565b604082019050919050565b6000611eac6038836123c0565b9150611eb782612879565b604082019050919050565b6000611ecf602a836123c0565b9150611eda826128c8565b604082019050919050565b6000611ef26029836123c0565b9150611efd82612917565b604082019050919050565b6000611f15602e836123c0565b9150611f2082612966565b604082019050919050565b6000611f386020836123c0565b9150611f43826129b5565b602082019050919050565b6000611f5b6031836123c0565b9150611f66826129de565b604082019050919050565b6000611f7e602c836123c0565b9150611f8982612a2d565b604082019050919050565b6000611fa16029836123c0565b9150611fac82612a7c565b604082019050919050565b6000611fc4602f836123c0565b9150611fcf82612acb565b604082019050919050565b6000611fe76021836123c0565b9150611ff282612b1a565b604082019050919050565b600061200a6031836123c0565b915061201582612b69565b604082019050919050565b61202981612501565b82525050565b600061203b8285611dbf565b91506120478284611dbf565b91508190509392505050565b60006020820190506120686000830184611d2f565b92915050565b60006080820190506120836000830187611d2f565b6120906020830186611d2f565b61209d6040830185612020565b81810360608301526120af8184611d4d565b905095945050505050565b60006020820190506120cf6000830184611d3e565b92915050565b600060208201905081810360008301526120ef8184611d86565b905092915050565b6000602082019050818103600083015261211081611df0565b9050919050565b6000602082019050818103600083015261213081611e13565b9050919050565b6000602082019050818103600083015261215081611e36565b9050919050565b6000602082019050818103600083015261217081611e59565b9050919050565b6000602082019050818103600083015261219081611e7c565b9050919050565b600060208201905081810360008301526121b081611e9f565b9050919050565b600060208201905081810360008301526121d081611ec2565b9050919050565b600060208201905081810360008301526121f081611ee5565b9050919050565b6000602082019050818103600083015261221081611f08565b9050919050565b6000602082019050818103600083015261223081611f2b565b9050919050565b6000602082019050818103600083015261225081611f4e565b9050919050565b6000602082019050818103600083015261227081611f71565b9050919050565b6000602082019050818103600083015261229081611f94565b9050919050565b600060208201905081810360008301526122b081611fb7565b9050919050565b600060208201905081810360008301526122d081611fda565b9050919050565b600060208201905081810360008301526122f081611ffd565b9050919050565b600060208201905061230c6000830184612020565b92915050565b600061231c61232d565b9050612328828261257f565b919050565b6000604051905090565b600067ffffffffffffffff821115612352576123516126e6565b5b61235b82612729565b9050602081019050919050565b600067ffffffffffffffff821115612383576123826126e6565b5b61238c82612729565b9050602081019050919050565b600081519050919050565b600081519050919050565b600082825260208201905092915050565b600082825260208201905092915050565b600081905092915050565b60006123e782612501565b91506123f283612501565b9250827fffffffffffffffffffffffffffffffffffffffffffffffffffffffffffffffff038211156124275761242661262a565b5b828201905092915050565b600061243d82612501565b915061244883612501565b92508261245857612457612659565b5b828204905092915050565b600061246e82612501565b915061247983612501565b92508282101561248c5761248b61262a565b5b828203905092915050565b60006124a2826124e1565b9050919050565b60008115159050919050565b60007fffffffff0000000000000000000000000000000000000000000000000000000082169050919050565b600073ffffffffffffffffffffffffffffffffffffffff82169050919050565b6000819050919050565b82818337600083830152505050565b60005b8381101561253857808201518184015260208101905061251d565b83811115612547576000848401525b50505050565b6000600282049050600182168061256557607f821691505b6020821081141561257957612578612688565b5b50919050565b61258882612729565b810181811067ffffffffffffffff821117156125a7576125a66126e6565b5b80604052505050565b60006125bb82612501565b91507fffffffffffffffffffffffffffffffffffffffffffffffffffffffffffffffff8214156125ee576125ed61262a565b5b600182019050919050565b600061260482612501565b915061260f83612501565b92508261261f5761261e612659565b5b828206905092915050565b7f4e487b7100000000000000000000000000000000000000000000000000000000600052601160045260246000fd5b7f4e487b7100000000000000000000000000000000000000000000000000000000600052601260045260246000fd5b7f4e487b7100000000000000000000000000000000000000000000000000000000600052602260045260246000fd5b7f4e487b7100000000000000000000000000000000000000000000000000000000600052603260045260246000fd5b7f4e487b7100000000000000000000000000000000000000000000000000000000600052604160045260246000fd5b600080fd5b600080fd5b600080fd5b600080fd5b6000601f19601f8301169050919050565b7f4552433732313a207472616e7366657220746f206e6f6e20455243373231526560008201527f63656976657220696d706c656d656e7465720000000000000000000000000000602082015250565b7f4552433732313a20746f6b656e20616c7265616479206d696e74656400000000600082015250565b7f4552433732313a207472616e7366657220746f20746865207a65726f2061646460008201527f7265737300000000000000000000000000000000000000000000000000000000602082015250565b7f4552433732313a20617070726f766520746f2063616c6c657200000000000000600082015250565b7f4552433732313a206f70657261746f7220717565727920666f72206e6f6e657860008201527f697374656e7420746f6b656e0000000000000000000000000000000000000000602082015250565b7f4552433732313a20617070726f76652063616c6c6572206973206e6f74206f7760008201527f6e6572206e6f7220617070726f76656420666f7220616c6c0000000000000000602082015250565b7f4552433732313a2062616c616e636520717565727920666f7220746865207a6560008201527f726f206164647265737300000000000000000000000000000000000000000000602082015250565b7f4552433732313a206f776e657220717565727920666f72206e6f6e657869737460008201527f656e7420746f6b656e0000000000000000000000000000000000000000000000602082015250565b7f45524337323155524953746f726167653a2055524920736574206f66206e6f6e60008201527f6578697374656e7420746f6b656e000000000000000000000000000000000000602082015250565b7f4552433732313a206d696e7420746f20746865207a65726f2061646472657373600082015250565b7f45524337323155524953746f726167653a2055524920717565727920666f722060008201527f6e6f6e6578697374656e7420746f6b656e000000000000000000000000000000602082015250565b7f4552433732313a20617070726f76656420717565727920666f72206e6f6e657860008201527f697374656e7420746f6b656e0000000000000000000000000000000000000000602082015250565b7f4552433732313a207472616e73666572206f6620746f6b656e2074686174206960008201527f73206e6f74206f776e0000000000000000000000000000000000000000000000602082015250565b7f4552433732314d657461646174613a2055524920717565727920666f72206e6f60008201527f6e6578697374656e7420746f6b656e0000000000000000000000000000000000602082015250565b7f4552433732313a20617070726f76616c20746f2063757272656e74206f776e6560008201527f7200000000000000000000000000000000000000000000000000000000000000602082015250565b7f4552433732313a207472616e736665722063616c6c6572206973206e6f74206f60008201527f776e6572206e6f7220617070726f766564000000000000000000000000000000602082015250565b612bc181612497565b8114612bcc57600080fd5b50565b612bd8816124a9565b8114612be357600080fd5b50565b612bef816124b5565b8114612bfa57600080fd5b50565b612c0681612501565b8114612c1157600080fd5b5056fea264697066735822122026a54979c1070add4873c5851e1a299779a1379695fe1584b44131710905ed7064736f6c63430008060033",
  "immutableReferences": {},
  "source": "pragma solidity ^0.8.0;\n\nimport \"@openzeppelin/contracts/utils/Counters.sol\";\nimport \"@openzeppelin/contracts/token/ERC721/extensions/ERC721URIStorage.sol\";\nimport \"@openzeppelin/contracts/security/ReentrancyGuard.sol\";\nimport \"@openzeppelin/contracts/token/ERC721/ERC721.sol\";\n\ncontract CodeNFT is ERC721URIStorage {\n    using Counters for Counters.Counter;\n    Counters.Counter private _tokenIds;\n    address contractAddress;\n\n    constructor() ERC721(\"Code NFT\", \"CODE\") {\n    }\n\n    function createToken(address marketplaceAddress, string memory tokenURI) public returns (uint) {\n        contractAddress = marketplaceAddress;\n        _tokenIds.increment();\n        uint256 newItemId = _tokenIds.current();\n\n        _mint(msg.sender, newItemId);\n        _setTokenURI(newItemId, tokenURI);\n        approve(contractAddress, newItemId);\n        return newItemId;\n    }\n    \n    function getLatestTokenId() public view returns (uint256) {\n        return _tokenIds.current();\n    }\n}\n\ncontract CodeNFTMarket is ReentrancyGuard {\n  using Counters for Counters.Counter;\n  Counters.Counter private _itemIds;\n  Counters.Counter private _itemsSold;\n\n  address payable owner;\n  uint256 listingPrice = 0.1 ether;\n\n  constructor() {\n    owner = payable(msg.sender);\n  }\n\n  struct MarketItem {\n    uint itemId;\n    address nftContract;\n    uint256 tokenId;\n    address payable seller;\n    address payable owner;\n    uint256 price;\n  }\n\n  mapping(uint256 => MarketItem) private idToMarketItem;\n\n  event MarketItemCreated (\n    uint indexed itemId,\n    address indexed nftContract,\n    uint256 indexed tokenId,\n    address seller,\n    address owner,\n    uint256 price\n  );\n\n  function getMarketItem(uint256 marketItemId) public view returns (MarketItem memory) {\n    return idToMarketItem[marketItemId];\n  }\n\n  \n\n  event Message (\n      address from,\n     uint256 tokenId  \n  );\n\n\n  function createMarketItem(\n    address nftContract,\n    uint256 tokenId,\n    uint256 price\n  ) public payable nonReentrant {\n    require(price > 0, \"Price must be at least 1 wei\");\n    // require(msg.value == listingPrice, \"Price must be equal to listing price\");\n\n    emit Message(msg.sender, tokenId);\n    _itemIds.increment();\n    uint256 itemId = _itemIds.current();\n  \n    IERC721(nftContract).transferFrom(msg.sender, address(this), tokenId);\n\n    idToMarketItem[itemId] =  MarketItem(\n      itemId,\n      nftContract,\n      tokenId,\n      payable(msg.sender),\n      payable(address(0)),\n      price\n    );\n\n\n    emit MarketItemCreated(\n      itemId,\n      nftContract,\n      tokenId,\n      msg.sender,\n      address(0),\n      price\n    );\n  }\n\n  function createMarketSale(\n    address nftContract,\n    uint256 itemId\n    ) public payable nonReentrant {\n    uint price = idToMarketItem[itemId].price;\n    uint tokenId = idToMarketItem[itemId].tokenId;\n    require(msg.value == price, \"Please submit the asking price in order to complete the purchase\");\n\n    idToMarketItem[itemId].seller.transfer(msg.value);\n    IERC721(nftContract).transferFrom(address(this), msg.sender, tokenId);\n    idToMarketItem[itemId].owner = payable(msg.sender);\n    _itemsSold.increment();\n    payable(owner).transfer(listingPrice);\n  }\n\n  function fetchMarketItems() public view returns (MarketItem[] memory) {\n    uint itemCount = _itemIds.current();\n    uint unsoldItemCount = _itemIds.current() - _itemsSold.current();\n    uint currentIndex = 0;\n\n    MarketItem[] memory items = new MarketItem[](unsoldItemCount);\n    for (uint i = 0; i < itemCount; i++) {\n      if (idToMarketItem[i + 1].owner == address(0)) {\n        uint currentId = i + 1;\n        MarketItem storage currentItem = idToMarketItem[currentId];\n        items[currentIndex] = currentItem;\n        currentIndex += 1;\n      }\n    }\n   \n    return items;\n  }\n\n  function fetchMyNFTs() public view returns (MarketItem[] memory) {\n    uint totalItemCount = _itemIds.current();\n    uint itemCount = 0;\n    uint currentIndex = 0;\n\n    for (uint i = 0; i < totalItemCount; i++) {\n      if (idToMarketItem[i + 1].owner == msg.sender) {\n        itemCount += 1;\n      }\n    }\n\n    MarketItem[] memory items = new MarketItem[](itemCount);\n    for (uint i = 0; i < totalItemCount; i++) {\n      if (idToMarketItem[i + 1].owner == msg.sender) {\n        uint currentId = i + 1;\n        MarketItem storage currentItem = idToMarketItem[currentId];\n        items[currentIndex] = currentItem;\n        currentIndex += 1;\n      }\n    }\n   \n    return items;\n  }\n}",
  "sourcePath": "/Users/maadhav/Documents/web3Projects/codenft/contracts/CodeNFT.sol",
  "compiler": {
    "name": "solc",
    "version": "0.8.6+commit.11564f7e.Emscripten.clang"
  },
  "schemaVersion": "3.4.1",
  "updatedAt": "2021-08-03T10:59:26.630Z",
  "devdoc": {
    "kind": "dev",
    "methods": {
      "approve(address,uint256)": {
        "details": "See {IERC721-approve}."
      },
      "balanceOf(address)": {
        "details": "See {IERC721-balanceOf}."
      },
      "getApproved(uint256)": {
        "details": "See {IERC721-getApproved}."
      },
      "isApprovedForAll(address,address)": {
        "details": "See {IERC721-isApprovedForAll}."
      },
      "name()": {
        "details": "See {IERC721Metadata-name}."
      },
      "ownerOf(uint256)": {
        "details": "See {IERC721-ownerOf}."
      },
      "safeTransferFrom(address,address,uint256)": {
        "details": "See {IERC721-safeTransferFrom}."
      },
      "safeTransferFrom(address,address,uint256,bytes)": {
        "details": "See {IERC721-safeTransferFrom}."
      },
      "setApprovalForAll(address,bool)": {
        "details": "See {IERC721-setApprovalForAll}."
      },
      "supportsInterface(bytes4)": {
        "details": "See {IERC165-supportsInterface}."
      },
      "symbol()": {
        "details": "See {IERC721Metadata-symbol}."
      },
      "tokenURI(uint256)": {
        "details": "See {IERC721Metadata-tokenURI}."
      },
      "transferFrom(address,address,uint256)": {
        "details": "See {IERC721-transferFrom}."
      }
    },
    "version": 1
  },
  "userdoc": {
    "kind": "user",
    "methods": {},
    "version": 1
  }
}