{
  "contractName": "CodeNFT",
  "abi": [
    {
      "inputs": [],
      "stateMutability": "nonpayable",
      "type": "constructor"
    },
    {
      "anonymous": false,
      "inputs": [
        {
          "indexed": true,
          "internalType": "address",
          "name": "owner",
          "type": "address"
        },
        {
          "indexed": true,
          "internalType": "address",
          "name": "approved",
          "type": "address"
        },
        {
          "indexed": true,
          "internalType": "uint256",
          "name": "tokenId",
          "type": "uint256"
        }
      ],
      "name": "Approval",
      "type": "event"
    },
    {
      "anonymous": false,
      "inputs": [
        {
          "indexed": true,
          "internalType": "address",
          "name": "owner",
          "type": "address"
        },
        {
          "indexed": true,
          "internalType": "address",
          "name": "operator",
          "type": "address"
        },
        {
          "indexed": false,
          "internalType": "bool",
          "name": "approved",
          "type": "bool"
        }
      ],
      "name": "ApprovalForAll",
      "type": "event"
    },
    {
      "anonymous": false,
      "inputs": [
        {
          "indexed": true,
          "internalType": "address",
          "name": "from",
          "type": "address"
        },
        {
          "indexed": true,
          "internalType": "address",
          "name": "to",
          "type": "address"
        },
        {
          "indexed": true,
          "internalType": "uint256",
          "name": "tokenId",
          "type": "uint256"
        }
      ],
      "name": "Transfer",
      "type": "event"
    },
    {
      "inputs": [
        {
          "internalType": "address",
          "name": "to",
          "type": "address"
        },
        {
          "internalType": "uint256",
          "name": "tokenId",
          "type": "uint256"
        }
      ],
      "name": "approve",
      "outputs": [],
      "stateMutability": "nonpayable",
      "type": "function"
    },
    {
      "inputs": [
        {
          "internalType": "address",
          "name": "owner",
          "type": "address"
        }
      ],
      "name": "balanceOf",
      "outputs": [
        {
          "internalType": "uint256",
          "name": "",
          "type": "uint256"
        }
      ],
      "stateMutability": "view",
      "type": "function",
      "constant": true
    },
    {
      "inputs": [
        {
          "internalType": "uint256",
          "name": "tokenId",
          "type": "uint256"
        }
      ],
      "name": "getApproved",
      "outputs": [
        {
          "internalType": "address",
          "name": "",
          "type": "address"
        }
      ],
      "stateMutability": "view",
      "type": "function",
      "constant": true
    },
    {
      "inputs": [
        {
          "internalType": "address",
          "name": "owner",
          "type": "address"
        },
        {
          "internalType": "address",
          "name": "operator",
          "type": "address"
        }
      ],
      "name": "isApprovedForAll",
      "outputs": [
        {
          "internalType": "bool",
          "name": "",
          "type": "bool"
        }
      ],
      "stateMutability": "view",
      "type": "function",
      "constant": true
    },
    {
      "inputs": [],
      "name": "name",
      "outputs": [
        {
          "internalType": "string",
          "name": "",
          "type": "string"
        }
      ],
      "stateMutability": "view",
      "type": "function",
      "constant": true
    },
    {
      "inputs": [
        {
          "internalType": "uint256",
          "name": "tokenId",
          "type": "uint256"
        }
      ],
      "name": "ownerOf",
      "outputs": [
        {
          "internalType": "address",
          "name": "",
          "type": "address"
        }
      ],
      "stateMutability": "view",
      "type": "function",
      "constant": true
    },
    {
      "inputs": [
        {
          "internalType": "address",
          "name": "from",
          "type": "address"
        },
        {
          "internalType": "address",
          "name": "to",
          "type": "address"
        },
        {
          "internalType": "uint256",
          "name": "tokenId",
          "type": "uint256"
        }
      ],
      "name": "safeTransferFrom",
      "outputs": [],
      "stateMutability": "nonpayable",
      "type": "function"
    },
    {
      "inputs": [
        {
          "internalType": "address",
          "name": "from",
          "type": "address"
        },
        {
          "internalType": "address",
          "name": "to",
          "type": "address"
        },
        {
          "internalType": "uint256",
          "name": "tokenId",
          "type": "uint256"
        },
        {
          "internalType": "bytes",
          "name": "_data",
          "type": "bytes"
        }
      ],
      "name": "safeTransferFrom",
      "outputs": [],
      "stateMutability": "nonpayable",
      "type": "function"
    },
    {
      "inputs": [
        {
          "internalType": "address",
          "name": "operator",
          "type": "address"
        },
        {
          "internalType": "bool",
          "name": "approved",
          "type": "bool"
        }
      ],
      "name": "setApprovalForAll",
      "outputs": [],
      "stateMutability": "nonpayable",
      "type": "function"
    },
    {
      "inputs": [
        {
          "internalType": "bytes4",
          "name": "interfaceId",
          "type": "bytes4"
        }
      ],
      "name": "supportsInterface",
      "outputs": [
        {
          "internalType": "bool",
          "name": "",
          "type": "bool"
        }
      ],
      "stateMutability": "view",
      "type": "function",
      "constant": true
    },
    {
      "inputs": [],
      "name": "symbol",
      "outputs": [
        {
          "internalType": "string",
          "name": "",
          "type": "string"
        }
      ],
      "stateMutability": "view",
      "type": "function",
      "constant": true
    },
    {
      "inputs": [
        {
          "internalType": "uint256",
          "name": "tokenId",
          "type": "uint256"
        }
      ],
      "name": "tokenURI",
      "outputs": [
        {
          "internalType": "string",
          "name": "",
          "type": "string"
        }
      ],
      "stateMutability": "view",
      "type": "function",
      "constant": true
    },
    {
      "inputs": [
        {
          "internalType": "address",
          "name": "from",
          "type": "address"
        },
        {
          "internalType": "address",
          "name": "to",
          "type": "address"
        },
        {
          "internalType": "uint256",
          "name": "tokenId",
          "type": "uint256"
        }
      ],
      "name": "transferFrom",
      "outputs": [],
      "stateMutability": "nonpayable",
      "type": "function"
    },
    {
      "inputs": [
        {
          "internalType": "address",
          "name": "marketplaceAddress",
          "type": "address"
        },
        {
          "internalType": "string",
          "name": "tokenURI",
          "type": "string"
        }
      ],
      "name": "createToken",
      "outputs": [
        {
          "internalType": "uint256",
          "name": "",
          "type": "uint256"
        }
      ],
      "stateMutability": "nonpayable",
      "type": "function"
    }
  ],
  "bytecode": "0x60806040523480156200001157600080fd5b506040518060400160405280600881526020017f436f6465204e46540000000000000000000000000000000000000000000000008152506040518060400160405280600481526020017f434f444500000000000000000000000000000000000000000000000000000000815250816000908051906020019062000096929190620000b8565b508060019080519060200190620000af929190620000b8565b505050620001cd565b828054620000c69062000168565b90600052602060002090601f016020900481019282620000ea576000855562000136565b82601f106200010557805160ff191683800117855562000136565b8280016001018555821562000136579182015b828111156200013557825182559160200191906001019062000118565b5b50905062000145919062000149565b5090565b5b80821115620001645760008160009055506001016200014a565b5090565b600060028204905060018216806200018157607f821691505b602082108114156200019857620001976200019e565b5b50919050565b7f4e487b7100000000000000000000000000000000000000000000000000000000600052602260045260246000fd5b612c1080620001dd6000396000f3fe608060405234801561001057600080fd5b50600436106100ea5760003560e01c80636352211e1161008c578063a22cb46511610066578063a22cb4651461026f578063b88d4fde1461028b578063c87b56dd146102a7578063e985e9c5146102d7576100ea565b80636352211e146101f157806370a082311461022157806395d89b4114610251576100ea565b8063081812fc116100c8578063081812fc1461016d578063095ea7b31461019d57806323b872dd146101b957806342842e0e146101d5576100ea565b806301382807146100ef57806301ffc9a71461011f57806306fdde031461014f575b600080fd5b61010960048036038101906101049190611bd2565b610307565b60405161011691906122bd565b60405180910390f35b61013960048036038101906101349190611c6e565b6103ac565b6040516101469190612080565b60405180910390f35b61015761048e565b604051610164919061209b565b60405180910390f35b61018760048036038101906101829190611cc8565b610520565b6040516101949190612019565b60405180910390f35b6101b760048036038101906101b29190611c2e565b6105a5565b005b6101d360048036038101906101ce9190611abc565b6106bd565b005b6101ef60048036038101906101ea9190611abc565b61071d565b005b61020b60048036038101906102069190611cc8565b61073d565b6040516102189190612019565b60405180910390f35b61023b60048036038101906102369190611a4f565b6107ef565b60405161024891906122bd565b60405180910390f35b6102596108a7565b604051610266919061209b565b60405180910390f35b61028960048036038101906102849190611b92565b610939565b005b6102a560048036038101906102a09190611b0f565b610aba565b005b6102c160048036038101906102bc9190611cc8565b610b1c565b6040516102ce919061209b565b60405180910390f35b6102f160048036038101906102ec9190611a7c565b610c6e565b6040516102fe9190612080565b60405180910390f35b600082600860006101000a81548173ffffffffffffffffffffffffffffffffffffffff021916908373ffffffffffffffffffffffffffffffffffffffff1602179055506103546007610d02565b60006103606007610d18565b905061036c3382610d26565b6103768184610ef4565b6103a2600860009054906101000a900473ffffffffffffffffffffffffffffffffffffffff16826105a5565b8091505092915050565b60007f80ac58cd000000000000000000000000000000000000000000000000000000007bffffffffffffffffffffffffffffffffffffffffffffffffffffffff1916827bffffffffffffffffffffffffffffffffffffffffffffffffffffffff1916148061047757507f5b5e139f000000000000000000000000000000000000000000000000000000007bffffffffffffffffffffffffffffffffffffffffffffffffffffffff1916827bffffffffffffffffffffffffffffffffffffffffffffffffffffffff1916145b80610487575061048682610f68565b5b9050919050565b60606000805461049d90612513565b80601f01602080910402602001604051908101604052809291908181526020018280546104c990612513565b80156105165780601f106104eb57610100808354040283529160200191610516565b820191906000526020600020905b8154815290600101906020018083116104f957829003601f168201915b5050505050905090565b600061052b82610fd2565b61056a576040517f08c379a00000000000000000000000000000000000000000000000000000000081526004016105619061221d565b60405180910390fd5b6004600083815260200190815260200160002060009054906101000a900473ffffffffffffffffffffffffffffffffffffffff169050919050565b60006105b08261073d565b90508073ffffffffffffffffffffffffffffffffffffffff168373ffffffffffffffffffffffffffffffffffffffff161415610621576040517f08c379a00000000000000000000000000000000000000000000000000000000081526004016106189061227d565b60405180910390fd5b8073ffffffffffffffffffffffffffffffffffffffff1661064061103e565b73ffffffffffffffffffffffffffffffffffffffff16148061066f575061066e8161066961103e565b610c6e565b5b6106ae576040517f08c379a00000000000000000000000000000000000000000000000000000000081526004016106a59061215d565b60405180910390fd5b6106b88383611046565b505050565b6106ce6106c861103e565b826110ff565b61070d576040517f08c379a00000000000000000000000000000000000000000000000000000000081526004016107049061229d565b60405180910390fd5b6107188383836111dd565b505050565b61073883838360405180602001604052806000815250610aba565b505050565b6000806002600084815260200190815260200160002060009054906101000a900473ffffffffffffffffffffffffffffffffffffffff169050600073ffffffffffffffffffffffffffffffffffffffff168173ffffffffffffffffffffffffffffffffffffffff1614156107e6576040517f08c379a00000000000000000000000000000000000000000000000000000000081526004016107dd9061219d565b60405180910390fd5b80915050919050565b60008073ffffffffffffffffffffffffffffffffffffffff168273ffffffffffffffffffffffffffffffffffffffff161415610860576040517f08c379a00000000000000000000000000000000000000000000000000000000081526004016108579061217d565b60405180910390fd5b600360008373ffffffffffffffffffffffffffffffffffffffff1673ffffffffffffffffffffffffffffffffffffffff168152602001908152602001600020549050919050565b6060600180546108b690612513565b80601f01602080910402602001604051908101604052809291908181526020018280546108e290612513565b801561092f5780601f106109045761010080835404028352916020019161092f565b820191906000526020600020905b81548152906001019060200180831161091257829003601f168201915b5050505050905090565b61094161103e565b73ffffffffffffffffffffffffffffffffffffffff168273ffffffffffffffffffffffffffffffffffffffff1614156109af576040517f08c379a00000000000000000000000000000000000000000000000000000000081526004016109a69061211d565b60405180910390fd5b80600560006109bc61103e565b73ffffffffffffffffffffffffffffffffffffffff1673ffffffffffffffffffffffffffffffffffffffff16815260200190815260200160002060008473ffffffffffffffffffffffffffffffffffffffff1673ffffffffffffffffffffffffffffffffffffffff16815260200190815260200160002060006101000a81548160ff0219169083151502179055508173ffffffffffffffffffffffffffffffffffffffff16610a6961103e565b73ffffffffffffffffffffffffffffffffffffffff167f17307eab39ab6107e8899845ad3d59bd9653f200f220920489ca2b5937696c3183604051610aae9190612080565b60405180910390a35050565b610acb610ac561103e565b836110ff565b610b0a576040517f08c379a0000000000000000000000000000000000000000000000000000000008152600401610b019061229d565b60405180910390fd5b610b1684848484611439565b50505050565b6060610b2782610fd2565b610b66576040517f08c379a0000000000000000000000000000000000000000000000000000000008152600401610b5d906121fd565b60405180910390fd5b6000600660008481526020019081526020016000208054610b8690612513565b80601f0160208091040260200160405190810160405280929190818152602001828054610bb290612513565b8015610bff5780601f10610bd457610100808354040283529160200191610bff565b820191906000526020600020905b815481529060010190602001808311610be257829003601f168201915b505050505090506000610c10611495565b9050600081511415610c26578192505050610c69565b600082511115610c5b578082604051602001610c43929190611ff5565b60405160208183030381529060405292505050610c69565b610c64846114ac565b925050505b919050565b6000600560008473ffffffffffffffffffffffffffffffffffffffff1673ffffffffffffffffffffffffffffffffffffffff16815260200190815260200160002060008373ffffffffffffffffffffffffffffffffffffffff1673ffffffffffffffffffffffffffffffffffffffff16815260200190815260200160002060009054906101000a900460ff16905092915050565b6001816000016000828254019250508190555050565b600081600001549050919050565b600073ffffffffffffffffffffffffffffffffffffffff168273ffffffffffffffffffffffffffffffffffffffff161415610d96576040517f08c379a0000000000000000000000000000000000000000000000000000000008152600401610d8d906121dd565b60405180910390fd5b610d9f81610fd2565b15610ddf576040517f08c379a0000000000000000000000000000000000000000000000000000000008152600401610dd6906120dd565b60405180910390fd5b610deb60008383611553565b6001600360008473ffffffffffffffffffffffffffffffffffffffff1673ffffffffffffffffffffffffffffffffffffffff1681526020019081526020016000206000828254610e3b91906123a2565b92505081905550816002600083815260200190815260200160002060006101000a81548173ffffffffffffffffffffffffffffffffffffffff021916908373ffffffffffffffffffffffffffffffffffffffff160217905550808273ffffffffffffffffffffffffffffffffffffffff16600073ffffffffffffffffffffffffffffffffffffffff167fddf252ad1be2c89b69c2b068fc378daa952ba7f163c4a11628f55a4df523b3ef60405160405180910390a45050565b610efd82610fd2565b610f3c576040517f08c379a0000000000000000000000000000000000000000000000000000000008152600401610f33906121bd565b60405180910390fd5b80600660008481526020019081526020016000209080519060200190610f63929190611863565b505050565b60007f01ffc9a7000000000000000000000000000000000000000000000000000000007bffffffffffffffffffffffffffffffffffffffffffffffffffffffff1916827bffffffffffffffffffffffffffffffffffffffffffffffffffffffff1916149050919050565b60008073ffffffffffffffffffffffffffffffffffffffff166002600084815260200190815260200160002060009054906101000a900473ffffffffffffffffffffffffffffffffffffffff1673ffffffffffffffffffffffffffffffffffffffff1614159050919050565b600033905090565b816004600083815260200190815260200160002060006101000a81548173ffffffffffffffffffffffffffffffffffffffff021916908373ffffffffffffffffffffffffffffffffffffffff160217905550808273ffffffffffffffffffffffffffffffffffffffff166110b98361073d565b73ffffffffffffffffffffffffffffffffffffffff167f8c5be1e5ebec7d5bd14f71427d1e84f3dd0314c0f7b2291e5b200ac8c7c3b92560405160405180910390a45050565b600061110a82610fd2565b611149576040517f08c379a00000000000000000000000000000000000000000000000000000000081526004016111409061213d565b60405180910390fd5b60006111548361073d565b90508073ffffffffffffffffffffffffffffffffffffffff168473ffffffffffffffffffffffffffffffffffffffff1614806111c357508373ffffffffffffffffffffffffffffffffffffffff166111ab84610520565b73ffffffffffffffffffffffffffffffffffffffff16145b806111d457506111d38185610c6e565b5b91505092915050565b8273ffffffffffffffffffffffffffffffffffffffff166111fd8261073d565b73ffffffffffffffffffffffffffffffffffffffff1614611253576040517f08c379a000000000000000000000000000000000000000000000000000000000815260040161124a9061223d565b60405180910390fd5b600073ffffffffffffffffffffffffffffffffffffffff168273ffffffffffffffffffffffffffffffffffffffff1614156112c3576040517f08c379a00000000000000000000000000000000000000000000000000000000081526004016112ba906120fd565b60405180910390fd5b6112ce838383611553565b6112d9600082611046565b6001600360008573ffffffffffffffffffffffffffffffffffffffff1673ffffffffffffffffffffffffffffffffffffffff16815260200190815260200160002060008282546113299190612429565b925050819055506001600360008473ffffffffffffffffffffffffffffffffffffffff1673ffffffffffffffffffffffffffffffffffffffff168152602001908152602001600020600082825461138091906123a2565b92505081905550816002600083815260200190815260200160002060006101000a81548173ffffffffffffffffffffffffffffffffffffffff021916908373ffffffffffffffffffffffffffffffffffffffff160217905550808273ffffffffffffffffffffffffffffffffffffffff168473ffffffffffffffffffffffffffffffffffffffff167fddf252ad1be2c89b69c2b068fc378daa952ba7f163c4a11628f55a4df523b3ef60405160405180910390a4505050565b6114448484846111dd565b61145084848484611558565b61148f576040517f08c379a0000000000000000000000000000000000000000000000000000000008152600401611486906120bd565b60405180910390fd5b50505050565b606060405180602001604052806000815250905090565b60606114b782610fd2565b6114f6576040517f08c379a00000000000000000000000000000000000000000000000000000000081526004016114ed9061225d565b60405180910390fd5b6000611500611495565b90506000815111611520576040518060200160405280600081525061154b565b8061152a846116ef565b60405160200161153b929190611ff5565b6040516020818303038152906040525b915050919050565b505050565b60006115798473ffffffffffffffffffffffffffffffffffffffff16611850565b156116e2578373ffffffffffffffffffffffffffffffffffffffff1663150b7a026115a261103e565b8786866040518563ffffffff1660e01b81526004016115c49493929190612034565b602060405180830381600087803b1580156115de57600080fd5b505af192505050801561160f57506040513d601f19601f8201168201806040525081019061160c9190611c9b565b60015b611692573d806000811461163f576040519150601f19603f3d011682016040523d82523d6000602084013e611644565b606091505b5060008151141561168a576040517f08c379a0000000000000000000000000000000000000000000000000000000008152600401611681906120bd565b60405180910390fd5b805181602001fd5b63150b7a0260e01b7bffffffffffffffffffffffffffffffffffffffffffffffffffffffff1916817bffffffffffffffffffffffffffffffffffffffffffffffffffffffff1916149150506116e7565b600190505b949350505050565b60606000821415611737576040518060400160405280600181526020017f3000000000000000000000000000000000000000000000000000000000000000815250905061184b565b600082905060005b6000821461176957808061175290612576565b915050600a8261176291906123f8565b915061173f565b60008167ffffffffffffffff811115611785576117846126ac565b5b6040519080825280601f01601f1916602001820160405280156117b75781602001600182028036833780820191505090505b5090505b60008514611844576001826117d09190612429565b9150600a856117df91906125bf565b60306117eb91906123a2565b60f81b8183815181106118015761180061267d565b5b60200101907effffffffffffffffffffffffffffffffffffffffffffffffffffffffffffff1916908160001a905350600a8561183d91906123f8565b94506117bb565b8093505050505b919050565b600080823b905060008111915050919050565b82805461186f90612513565b90600052602060002090601f01602090048101928261189157600085556118d8565b82601f106118aa57805160ff19168380011785556118d8565b828001600101855582156118d8579182015b828111156118d75782518255916020019190600101906118bc565b5b5090506118e591906118e9565b5090565b5b808211156119025760008160009055506001016118ea565b5090565b6000611919611914846122fd565b6122d8565b905082815260208101848484011115611935576119346126e0565b5b6119408482856124d1565b509392505050565b600061195b6119568461232e565b6122d8565b905082815260208101848484011115611977576119766126e0565b5b6119828482856124d1565b509392505050565b60008135905061199981612b7e565b92915050565b6000813590506119ae81612b95565b92915050565b6000813590506119c381612bac565b92915050565b6000815190506119d881612bac565b92915050565b600082601f8301126119f3576119f26126db565b5b8135611a03848260208601611906565b91505092915050565b600082601f830112611a2157611a206126db565b5b8135611a31848260208601611948565b91505092915050565b600081359050611a4981612bc3565b92915050565b600060208284031215611a6557611a646126ea565b5b6000611a738482850161198a565b91505092915050565b60008060408385031215611a9357611a926126ea565b5b6000611aa18582860161198a565b9250506020611ab28582860161198a565b9150509250929050565b600080600060608486031215611ad557611ad46126ea565b5b6000611ae38682870161198a565b9350506020611af48682870161198a565b9250506040611b0586828701611a3a565b9150509250925092565b60008060008060808587031215611b2957611b286126ea565b5b6000611b378782880161198a565b9450506020611b488782880161198a565b9350506040611b5987828801611a3a565b925050606085013567ffffffffffffffff811115611b7a57611b796126e5565b5b611b86878288016119de565b91505092959194509250565b60008060408385031215611ba957611ba86126ea565b5b6000611bb78582860161198a565b9250506020611bc88582860161199f565b9150509250929050565b60008060408385031215611be957611be86126ea565b5b6000611bf78582860161198a565b925050602083013567ffffffffffffffff811115611c1857611c176126e5565b5b611c2485828601611a0c565b9150509250929050565b60008060408385031215611c4557611c446126ea565b5b6000611c538582860161198a565b9250506020611c6485828601611a3a565b9150509250929050565b600060208284031215611c8457611c836126ea565b5b6000611c92848285016119b4565b91505092915050565b600060208284031215611cb157611cb06126ea565b5b6000611cbf848285016119c9565b91505092915050565b600060208284031215611cde57611cdd6126ea565b5b6000611cec84828501611a3a565b91505092915050565b611cfe8161245d565b82525050565b611d0d8161246f565b82525050565b6000611d1e8261235f565b611d288185612375565b9350611d388185602086016124e0565b611d41816126ef565b840191505092915050565b6000611d578261236a565b611d618185612386565b9350611d718185602086016124e0565b611d7a816126ef565b840191505092915050565b6000611d908261236a565b611d9a8185612397565b9350611daa8185602086016124e0565b80840191505092915050565b6000611dc3603283612386565b9150611dce82612700565b604082019050919050565b6000611de6601c83612386565b9150611df18261274f565b602082019050919050565b6000611e09602483612386565b9150611e1482612778565b604082019050919050565b6000611e2c601983612386565b9150611e37826127c7565b602082019050919050565b6000611e4f602c83612386565b9150611e5a826127f0565b604082019050919050565b6000611e72603883612386565b9150611e7d8261283f565b604082019050919050565b6000611e95602a83612386565b9150611ea08261288e565b604082019050919050565b6000611eb8602983612386565b9150611ec3826128dd565b604082019050919050565b6000611edb602e83612386565b9150611ee68261292c565b604082019050919050565b6000611efe602083612386565b9150611f098261297b565b602082019050919050565b6000611f21603183612386565b9150611f2c826129a4565b604082019050919050565b6000611f44602c83612386565b9150611f4f826129f3565b604082019050919050565b6000611f67602983612386565b9150611f7282612a42565b604082019050919050565b6000611f8a602f83612386565b9150611f9582612a91565b604082019050919050565b6000611fad602183612386565b9150611fb882612ae0565b604082019050919050565b6000611fd0603183612386565b9150611fdb82612b2f565b604082019050919050565b611fef816124c7565b82525050565b60006120018285611d85565b915061200d8284611d85565b91508190509392505050565b600060208201905061202e6000830184611cf5565b92915050565b60006080820190506120496000830187611cf5565b6120566020830186611cf5565b6120636040830185611fe6565b81810360608301526120758184611d13565b905095945050505050565b60006020820190506120956000830184611d04565b92915050565b600060208201905081810360008301526120b58184611d4c565b905092915050565b600060208201905081810360008301526120d681611db6565b9050919050565b600060208201905081810360008301526120f681611dd9565b9050919050565b6000602082019050818103600083015261211681611dfc565b9050919050565b6000602082019050818103600083015261213681611e1f565b9050919050565b6000602082019050818103600083015261215681611e42565b9050919050565b6000602082019050818103600083015261217681611e65565b9050919050565b6000602082019050818103600083015261219681611e88565b9050919050565b600060208201905081810360008301526121b681611eab565b9050919050565b600060208201905081810360008301526121d681611ece565b9050919050565b600060208201905081810360008301526121f681611ef1565b9050919050565b6000602082019050818103600083015261221681611f14565b9050919050565b6000602082019050818103600083015261223681611f37565b9050919050565b6000602082019050818103600083015261225681611f5a565b9050919050565b6000602082019050818103600083015261227681611f7d565b9050919050565b6000602082019050818103600083015261229681611fa0565b9050919050565b600060208201905081810360008301526122b681611fc3565b9050919050565b60006020820190506122d26000830184611fe6565b92915050565b60006122e26122f3565b90506122ee8282612545565b919050565b6000604051905090565b600067ffffffffffffffff821115612318576123176126ac565b5b612321826126ef565b9050602081019050919050565b600067ffffffffffffffff821115612349576123486126ac565b5b612352826126ef565b9050602081019050919050565b600081519050919050565b600081519050919050565b600082825260208201905092915050565b600082825260208201905092915050565b600081905092915050565b60006123ad826124c7565b91506123b8836124c7565b9250827fffffffffffffffffffffffffffffffffffffffffffffffffffffffffffffffff038211156123ed576123ec6125f0565b5b828201905092915050565b6000612403826124c7565b915061240e836124c7565b92508261241e5761241d61261f565b5b828204905092915050565b6000612434826124c7565b915061243f836124c7565b925082821015612452576124516125f0565b5b828203905092915050565b6000612468826124a7565b9050919050565b60008115159050919050565b60007fffffffff0000000000000000000000000000000000000000000000000000000082169050919050565b600073ffffffffffffffffffffffffffffffffffffffff82169050919050565b6000819050919050565b82818337600083830152505050565b60005b838110156124fe5780820151818401526020810190506124e3565b8381111561250d576000848401525b50505050565b6000600282049050600182168061252b57607f821691505b6020821081141561253f5761253e61264e565b5b50919050565b61254e826126ef565b810181811067ffffffffffffffff8211171561256d5761256c6126ac565b5b80604052505050565b6000612581826124c7565b91507fffffffffffffffffffffffffffffffffffffffffffffffffffffffffffffffff8214156125b4576125b36125f0565b5b600182019050919050565b60006125ca826124c7565b91506125d5836124c7565b9250826125e5576125e461261f565b5b828206905092915050565b7f4e487b7100000000000000000000000000000000000000000000000000000000600052601160045260246000fd5b7f4e487b7100000000000000000000000000000000000000000000000000000000600052601260045260246000fd5b7f4e487b7100000000000000000000000000000000000000000000000000000000600052602260045260246000fd5b7f4e487b7100000000000000000000000000000000000000000000000000000000600052603260045260246000fd5b7f4e487b7100000000000000000000000000000000000000000000000000000000600052604160045260246000fd5b600080fd5b600080fd5b600080fd5b600080fd5b6000601f19601f8301169050919050565b7f4552433732313a207472616e7366657220746f206e6f6e20455243373231526560008201527f63656976657220696d706c656d656e7465720000000000000000000000000000602082015250565b7f4552433732313a20746f6b656e20616c7265616479206d696e74656400000000600082015250565b7f4552433732313a207472616e7366657220746f20746865207a65726f2061646460008201527f7265737300000000000000000000000000000000000000000000000000000000602082015250565b7f4552433732313a20617070726f766520746f2063616c6c657200000000000000600082015250565b7f4552433732313a206f70657261746f7220717565727920666f72206e6f6e657860008201527f697374656e7420746f6b656e0000000000000000000000000000000000000000602082015250565b7f4552433732313a20617070726f76652063616c6c6572206973206e6f74206f7760008201527f6e6572206e6f7220617070726f76656420666f7220616c6c0000000000000000602082015250565b7f4552433732313a2062616c616e636520717565727920666f7220746865207a6560008201527f726f206164647265737300000000000000000000000000000000000000000000602082015250565b7f4552433732313a206f776e657220717565727920666f72206e6f6e657869737460008201527f656e7420746f6b656e0000000000000000000000000000000000000000000000602082015250565b7f45524337323155524953746f726167653a2055524920736574206f66206e6f6e60008201527f6578697374656e7420746f6b656e000000000000000000000000000000000000602082015250565b7f4552433732313a206d696e7420746f20746865207a65726f2061646472657373600082015250565b7f45524337323155524953746f726167653a2055524920717565727920666f722060008201527f6e6f6e6578697374656e7420746f6b656e000000000000000000000000000000602082015250565b7f4552433732313a20617070726f76656420717565727920666f72206e6f6e657860008201527f697374656e7420746f6b656e0000000000000000000000000000000000000000602082015250565b7f4552433732313a207472616e73666572206f6620746f6b656e2074686174206960008201527f73206e6f74206f776e0000000000000000000000000000000000000000000000602082015250565b7f4552433732314d657461646174613a2055524920717565727920666f72206e6f60008201527f6e6578697374656e7420746f6b656e0000000000000000000000000000000000602082015250565b7f4552433732313a20617070726f76616c20746f2063757272656e74206f776e6560008201527f7200000000000000000000000000000000000000000000000000000000000000602082015250565b7f4552433732313a207472616e736665722063616c6c6572206973206e6f74206f60008201527f776e6572206e6f7220617070726f766564000000000000000000000000000000602082015250565b612b878161245d565b8114612b9257600080fd5b50565b612b9e8161246f565b8114612ba957600080fd5b50565b612bb58161247b565b8114612bc057600080fd5b50565b612bcc816124c7565b8114612bd757600080fd5b5056fea26469706673582212205b3f512bc32f16bd45907dedfb045c6fce1cf286efb467d8d19baee4ac3f867164736f6c63430008060033",
  "immutableReferences": {},
  "source": "pragma solidity ^0.8.0;\n\nimport \"@openzeppelin/contracts/utils/Counters.sol\";\nimport \"@openzeppelin/contracts/token/ERC721/extensions/ERC721URIStorage.sol\";\nimport \"@openzeppelin/contracts/security/ReentrancyGuard.sol\";\nimport \"@openzeppelin/contracts/token/ERC721/ERC721.sol\";\n\ncontract CodeNFT is ERC721URIStorage {\n    using Counters for Counters.Counter;\n    Counters.Counter private _tokenIds;\n    address contractAddress;\n\n    constructor() ERC721(\"Code NFT\", \"CODE\") {\n    }\n\n    function createToken(address marketplaceAddress, string memory tokenURI) public returns (uint) {\n        contractAddress = marketplaceAddress;\n        _tokenIds.increment();\n        uint256 newItemId = _tokenIds.current();\n\n        _mint(msg.sender, newItemId);\n        _setTokenURI(newItemId, tokenURI);\n        approve(contractAddress, newItemId);\n        return newItemId;\n    }\n}\n\ncontract CodeNFTMarket is ReentrancyGuard {\n  using Counters for Counters.Counter;\n  Counters.Counter private _itemIds;\n  Counters.Counter private _itemsSold;\n\n  address payable owner;\n  uint256 listingPrice = 0.1 ether;\n\n  constructor() {\n    owner = payable(msg.sender);\n  }\n\n  struct MarketItem {\n    uint itemId;\n    address nftContract;\n    uint256 tokenId;\n    address payable seller;\n    address payable owner;\n    uint256 price;\n  }\n\n  mapping(uint256 => MarketItem) private idToMarketItem;\n\n  event MarketItemCreated (\n    uint indexed itemId,\n    address indexed nftContract,\n    uint256 indexed tokenId,\n    address seller,\n    address owner,\n    uint256 price\n  );\n\n  function getMarketItem(uint256 marketItemId) public view returns (MarketItem memory) {\n    return idToMarketItem[marketItemId];\n  }\n\n  \n\n  event Message (\n      address from,\n     uint256 tokenId  \n  );\n\n\n  function createMarketItem(\n    address nftContract,\n    uint256 tokenId,\n    uint256 price\n  ) public payable nonReentrant {\n    require(price > 0, \"Price must be at least 1 wei\");\n    require(msg.value == listingPrice, \"Price must be equal to listing price\");\n\n    emit Message(msg.sender, tokenId);\n    _itemIds.increment();\n    uint256 itemId = _itemIds.current();\n  \n    IERC721(nftContract).transferFrom(msg.sender, address(this), 1);\n\n    idToMarketItem[itemId] =  MarketItem(\n      itemId,\n      nftContract,\n      tokenId,\n      payable(msg.sender),\n      payable(address(0)),\n      price\n    );\n\n\n    emit MarketItemCreated(\n      itemId,\n      nftContract,\n      tokenId,\n      msg.sender,\n      address(0),\n      price\n    );\n  }\n\n  function createMarketSale(\n    address nftContract,\n    uint256 itemId\n    ) public payable nonReentrant {\n    uint price = idToMarketItem[itemId].price;\n    uint tokenId = idToMarketItem[itemId].tokenId;\n    require(msg.value == price, \"Please submit the asking price in order to complete the purchase\");\n\n    idToMarketItem[itemId].seller.transfer(msg.value);\n    IERC721(nftContract).transferFrom(address(this), msg.sender, tokenId);\n    idToMarketItem[itemId].owner = payable(msg.sender);\n    _itemsSold.increment();\n    payable(owner).transfer(listingPrice);\n  }\n\n  function fetchMarketItems() public view returns (MarketItem[] memory) {\n    uint itemCount = _itemIds.current();\n    uint unsoldItemCount = _itemIds.current() - _itemsSold.current();\n    uint currentIndex = 0;\n\n    MarketItem[] memory items = new MarketItem[](unsoldItemCount);\n    for (uint i = 0; i < itemCount; i++) {\n      if (idToMarketItem[i + 1].owner == address(0)) {\n        uint currentId = i + 1;\n        MarketItem storage currentItem = idToMarketItem[currentId];\n        items[currentIndex] = currentItem;\n        currentIndex += 1;\n      }\n    }\n   \n    return items;\n  }\n\n  function fetchMyNFTs() public view returns (MarketItem[] memory) {\n    uint totalItemCount = _itemIds.current();\n    uint itemCount = 0;\n    uint currentIndex = 0;\n\n    for (uint i = 0; i < totalItemCount; i++) {\n      if (idToMarketItem[i + 1].owner == msg.sender) {\n        itemCount += 1;\n      }\n    }\n\n    MarketItem[] memory items = new MarketItem[](itemCount);\n    for (uint i = 0; i < totalItemCount; i++) {\n      if (idToMarketItem[i + 1].owner == msg.sender) {\n        uint currentId = i + 1;\n        MarketItem storage currentItem = idToMarketItem[currentId];\n        items[currentIndex] = currentItem;\n        currentIndex += 1;\n      }\n    }\n   \n    return items;\n  }\n}",
  "sourcePath": "/Users/osfy/Documents/Web3Projects/codenft/contracts/CodeNFT.sol",
  "compiler": {
    "name": "solc",
    "version": "0.8.6+commit.11564f7e.Emscripten.clang"
  },
  "schemaVersion": "3.4.1",
  "updatedAt": "2021-07-30T03:32:40.750Z",
  "networkType": "ethereum",
  "devdoc": {
    "kind": "dev",
    "methods": {
      "approve(address,uint256)": {
        "details": "See {IERC721-approve}."
      },
      "balanceOf(address)": {
        "details": "See {IERC721-balanceOf}."
      },
      "getApproved(uint256)": {
        "details": "See {IERC721-getApproved}."
      },
      "isApprovedForAll(address,address)": {
        "details": "See {IERC721-isApprovedForAll}."
      },
      "name()": {
        "details": "See {IERC721Metadata-name}."
      },
      "ownerOf(uint256)": {
        "details": "See {IERC721-ownerOf}."
      },
      "safeTransferFrom(address,address,uint256)": {
        "details": "See {IERC721-safeTransferFrom}."
      },
      "safeTransferFrom(address,address,uint256,bytes)": {
        "details": "See {IERC721-safeTransferFrom}."
      },
      "setApprovalForAll(address,bool)": {
        "details": "See {IERC721-setApprovalForAll}."
      },
      "supportsInterface(bytes4)": {
        "details": "See {IERC165-supportsInterface}."
      },
      "symbol()": {
        "details": "See {IERC721Metadata-symbol}."
      },
      "tokenURI(uint256)": {
        "details": "See {IERC721Metadata-tokenURI}."
      },
      "transferFrom(address,address,uint256)": {
        "details": "See {IERC721-transferFrom}."
      }
    },
    "version": 1
  },
  "userdoc": {
    "kind": "user",
    "methods": {},
    "version": 1
  }
}