{
  "contractName": "CodeNFT",
  "abi": [
    {
      "inputs": [],
      "stateMutability": "nonpayable",
      "type": "constructor"
    },
    {
      "anonymous": false,
      "inputs": [
        {
          "indexed": true,
          "internalType": "address",
          "name": "owner",
          "type": "address"
        },
        {
          "indexed": true,
          "internalType": "address",
          "name": "approved",
          "type": "address"
        },
        {
          "indexed": true,
          "internalType": "uint256",
          "name": "tokenId",
          "type": "uint256"
        }
      ],
      "name": "Approval",
      "type": "event"
    },
    {
      "anonymous": false,
      "inputs": [
        {
          "indexed": true,
          "internalType": "address",
          "name": "owner",
          "type": "address"
        },
        {
          "indexed": true,
          "internalType": "address",
          "name": "operator",
          "type": "address"
        },
        {
          "indexed": false,
          "internalType": "bool",
          "name": "approved",
          "type": "bool"
        }
      ],
      "name": "ApprovalForAll",
      "type": "event"
    },
    {
      "anonymous": false,
      "inputs": [
        {
          "indexed": true,
          "internalType": "bytes32",
          "name": "role",
          "type": "bytes32"
        },
        {
          "indexed": true,
          "internalType": "bytes32",
          "name": "previousAdminRole",
          "type": "bytes32"
        },
        {
          "indexed": true,
          "internalType": "bytes32",
          "name": "newAdminRole",
          "type": "bytes32"
        }
      ],
      "name": "RoleAdminChanged",
      "type": "event"
    },
    {
      "anonymous": false,
      "inputs": [
        {
          "indexed": true,
          "internalType": "bytes32",
          "name": "role",
          "type": "bytes32"
        },
        {
          "indexed": true,
          "internalType": "address",
          "name": "account",
          "type": "address"
        },
        {
          "indexed": true,
          "internalType": "address",
          "name": "sender",
          "type": "address"
        }
      ],
      "name": "RoleGranted",
      "type": "event"
    },
    {
      "anonymous": false,
      "inputs": [
        {
          "indexed": true,
          "internalType": "bytes32",
          "name": "role",
          "type": "bytes32"
        },
        {
          "indexed": true,
          "internalType": "address",
          "name": "account",
          "type": "address"
        },
        {
          "indexed": true,
          "internalType": "address",
          "name": "sender",
          "type": "address"
        }
      ],
      "name": "RoleRevoked",
      "type": "event"
    },
    {
      "anonymous": false,
      "inputs": [
        {
          "indexed": true,
          "internalType": "address",
          "name": "from",
          "type": "address"
        },
        {
          "indexed": true,
          "internalType": "address",
          "name": "to",
          "type": "address"
        },
        {
          "indexed": true,
          "internalType": "uint256",
          "name": "tokenId",
          "type": "uint256"
        }
      ],
      "name": "Transfer",
      "type": "event"
    },
    {
      "inputs": [],
      "name": "DEFAULT_ADMIN_ROLE",
      "outputs": [
        {
          "internalType": "bytes32",
          "name": "",
          "type": "bytes32"
        }
      ],
      "stateMutability": "view",
      "type": "function",
      "constant": true
    },
    {
      "inputs": [],
      "name": "MINTER_ROLE",
      "outputs": [
        {
          "internalType": "bytes32",
          "name": "",
          "type": "bytes32"
        }
      ],
      "stateMutability": "view",
      "type": "function",
      "constant": true
    },
    {
      "inputs": [
        {
          "internalType": "address",
          "name": "to",
          "type": "address"
        },
        {
          "internalType": "uint256",
          "name": "tokenId",
          "type": "uint256"
        }
      ],
      "name": "approve",
      "outputs": [],
      "stateMutability": "nonpayable",
      "type": "function"
    },
    {
      "inputs": [
        {
          "internalType": "address",
          "name": "owner",
          "type": "address"
        }
      ],
      "name": "balanceOf",
      "outputs": [
        {
          "internalType": "uint256",
          "name": "",
          "type": "uint256"
        }
      ],
      "stateMutability": "view",
      "type": "function",
      "constant": true
    },
    {
      "inputs": [
        {
          "internalType": "uint256",
          "name": "tokenId",
          "type": "uint256"
        }
      ],
      "name": "getApproved",
      "outputs": [
        {
          "internalType": "address",
          "name": "",
          "type": "address"
        }
      ],
      "stateMutability": "view",
      "type": "function",
      "constant": true
    },
    {
      "inputs": [
        {
          "internalType": "bytes32",
          "name": "role",
          "type": "bytes32"
        }
      ],
      "name": "getRoleAdmin",
      "outputs": [
        {
          "internalType": "bytes32",
          "name": "",
          "type": "bytes32"
        }
      ],
      "stateMutability": "view",
      "type": "function",
      "constant": true
    },
    {
      "inputs": [
        {
          "internalType": "bytes32",
          "name": "role",
          "type": "bytes32"
        },
        {
          "internalType": "uint256",
          "name": "index",
          "type": "uint256"
        }
      ],
      "name": "getRoleMember",
      "outputs": [
        {
          "internalType": "address",
          "name": "",
          "type": "address"
        }
      ],
      "stateMutability": "view",
      "type": "function",
      "constant": true
    },
    {
      "inputs": [
        {
          "internalType": "bytes32",
          "name": "role",
          "type": "bytes32"
        }
      ],
      "name": "getRoleMemberCount",
      "outputs": [
        {
          "internalType": "uint256",
          "name": "",
          "type": "uint256"
        }
      ],
      "stateMutability": "view",
      "type": "function",
      "constant": true
    },
    {
      "inputs": [
        {
          "internalType": "bytes32",
          "name": "role",
          "type": "bytes32"
        },
        {
          "internalType": "address",
          "name": "account",
          "type": "address"
        }
      ],
      "name": "grantRole",
      "outputs": [],
      "stateMutability": "nonpayable",
      "type": "function"
    },
    {
      "inputs": [
        {
          "internalType": "bytes32",
          "name": "role",
          "type": "bytes32"
        },
        {
          "internalType": "address",
          "name": "account",
          "type": "address"
        }
      ],
      "name": "hasRole",
      "outputs": [
        {
          "internalType": "bool",
          "name": "",
          "type": "bool"
        }
      ],
      "stateMutability": "view",
      "type": "function",
      "constant": true
    },
    {
      "inputs": [
        {
          "internalType": "address",
          "name": "owner",
          "type": "address"
        },
        {
          "internalType": "address",
          "name": "operator",
          "type": "address"
        }
      ],
      "name": "isApprovedForAll",
      "outputs": [
        {
          "internalType": "bool",
          "name": "",
          "type": "bool"
        }
      ],
      "stateMutability": "view",
      "type": "function",
      "constant": true
    },
    {
      "inputs": [],
      "name": "name",
      "outputs": [
        {
          "internalType": "string",
          "name": "",
          "type": "string"
        }
      ],
      "stateMutability": "view",
      "type": "function",
      "constant": true
    },
    {
      "inputs": [
        {
          "internalType": "uint256",
          "name": "tokenId",
          "type": "uint256"
        }
      ],
      "name": "ownerOf",
      "outputs": [
        {
          "internalType": "address",
          "name": "",
          "type": "address"
        }
      ],
      "stateMutability": "view",
      "type": "function",
      "constant": true
    },
    {
      "inputs": [
        {
          "internalType": "bytes32",
          "name": "role",
          "type": "bytes32"
        },
        {
          "internalType": "address",
          "name": "account",
          "type": "address"
        }
      ],
      "name": "renounceRole",
      "outputs": [],
      "stateMutability": "nonpayable",
      "type": "function"
    },
    {
      "inputs": [
        {
          "internalType": "bytes32",
          "name": "role",
          "type": "bytes32"
        },
        {
          "internalType": "address",
          "name": "account",
          "type": "address"
        }
      ],
      "name": "revokeRole",
      "outputs": [],
      "stateMutability": "nonpayable",
      "type": "function"
    },
    {
      "inputs": [
        {
          "internalType": "address",
          "name": "from",
          "type": "address"
        },
        {
          "internalType": "address",
          "name": "to",
          "type": "address"
        },
        {
          "internalType": "uint256",
          "name": "tokenId",
          "type": "uint256"
        }
      ],
      "name": "safeTransferFrom",
      "outputs": [],
      "stateMutability": "nonpayable",
      "type": "function"
    },
    {
      "inputs": [
        {
          "internalType": "address",
          "name": "from",
          "type": "address"
        },
        {
          "internalType": "address",
          "name": "to",
          "type": "address"
        },
        {
          "internalType": "uint256",
          "name": "tokenId",
          "type": "uint256"
        },
        {
          "internalType": "bytes",
          "name": "_data",
          "type": "bytes"
        }
      ],
      "name": "safeTransferFrom",
      "outputs": [],
      "stateMutability": "nonpayable",
      "type": "function"
    },
    {
      "inputs": [
        {
          "internalType": "address",
          "name": "operator",
          "type": "address"
        },
        {
          "internalType": "bool",
          "name": "approved",
          "type": "bool"
        }
      ],
      "name": "setApprovalForAll",
      "outputs": [],
      "stateMutability": "nonpayable",
      "type": "function"
    },
    {
      "inputs": [],
      "name": "symbol",
      "outputs": [
        {
          "internalType": "string",
          "name": "",
          "type": "string"
        }
      ],
      "stateMutability": "view",
      "type": "function",
      "constant": true
    },
    {
      "inputs": [
        {
          "internalType": "uint256",
          "name": "index",
          "type": "uint256"
        }
      ],
      "name": "tokenByIndex",
      "outputs": [
        {
          "internalType": "uint256",
          "name": "",
          "type": "uint256"
        }
      ],
      "stateMutability": "view",
      "type": "function",
      "constant": true
    },
    {
      "inputs": [
        {
          "internalType": "address",
          "name": "owner",
          "type": "address"
        },
        {
          "internalType": "uint256",
          "name": "index",
          "type": "uint256"
        }
      ],
      "name": "tokenOfOwnerByIndex",
      "outputs": [
        {
          "internalType": "uint256",
          "name": "",
          "type": "uint256"
        }
      ],
      "stateMutability": "view",
      "type": "function",
      "constant": true
    },
    {
      "inputs": [],
      "name": "totalSupply",
      "outputs": [
        {
          "internalType": "uint256",
          "name": "",
          "type": "uint256"
        }
      ],
      "stateMutability": "view",
      "type": "function",
      "constant": true
    },
    {
      "inputs": [
        {
          "internalType": "address",
          "name": "from",
          "type": "address"
        },
        {
          "internalType": "address",
          "name": "to",
          "type": "address"
        },
        {
          "internalType": "uint256",
          "name": "tokenId",
          "type": "uint256"
        }
      ],
      "name": "transferFrom",
      "outputs": [],
      "stateMutability": "nonpayable",
      "type": "function"
    },
    {
      "inputs": [
        {
          "internalType": "address",
          "name": "client",
          "type": "address"
        },
        {
          "internalType": "string",
          "name": "repoURI",
          "type": "string"
        }
      ],
      "name": "mintToken",
      "outputs": [
        {
          "internalType": "uint256",
          "name": "",
          "type": "uint256"
        }
      ],
      "stateMutability": "nonpayable",
      "type": "function"
    },
    {
      "inputs": [
        {
          "internalType": "uint256",
          "name": "tokenId",
          "type": "uint256"
        }
      ],
      "name": "tokenURI",
      "outputs": [
        {
          "internalType": "string",
          "name": "",
          "type": "string"
        }
      ],
      "stateMutability": "view",
      "type": "function",
      "constant": true
    },
    {
      "inputs": [
        {
          "internalType": "bytes4",
          "name": "interfaceId",
          "type": "bytes4"
        }
      ],
      "name": "supportsInterface",
      "outputs": [
        {
          "internalType": "bool",
          "name": "",
          "type": "bool"
        }
      ],
      "stateMutability": "view",
      "type": "function",
      "constant": true
    }
  ],
  "bytecode": "0x60806040523480156200001157600080fd5b506040518060400160405280600481526020017f436f6465000000000000000000000000000000000000000000000000000000008152506040518060400160405280600481526020017f434f44450000000000000000000000000000000000000000000000000000000081525081600290805190602001906200009692919062000401565b508060039080519060200190620000af92919062000401565b5050506040518060400160405280600781526020017f697066733a2f2f00000000000000000000000000000000000000000000000000815250600e9080519060200190620000ff92919062000401565b50620001246000801b620001186200016b60201b60201c565b6200017360201b60201c565b620001657f9f2df0fed2c77648de5860a4cc508cd0818c85b8b8a1ab4ceeef8d981c8956a6620001596200016b60201b60201c565b6200017360201b60201c565b62000516565b600033905090565b6200018a8282620001bb60201b6200116d1760201c565b620001b68160016000858152602001908152602001600020620001d160201b6200117b1790919060201c565b505050565b620001cd82826200020960201b60201c565b5050565b600062000201836000018373ffffffffffffffffffffffffffffffffffffffff1660001b620002fa60201b60201c565b905092915050565b6200021b82826200037460201b60201c565b620002f657600160008084815260200190815260200160002060000160008373ffffffffffffffffffffffffffffffffffffffff1673ffffffffffffffffffffffffffffffffffffffff16815260200190815260200160002060006101000a81548160ff0219169083151502179055506200029b6200016b60201b60201c565b73ffffffffffffffffffffffffffffffffffffffff168173ffffffffffffffffffffffffffffffffffffffff16837f2f8788117e7eff1d82e926ec794901d17c78024a50270940304540a733656f0d60405160405180910390a45b5050565b60006200030e8383620003de60201b60201c565b620003695782600001829080600181540180825580915050600190039060005260206000200160009091909190915055826000018054905083600101600084815260200190815260200160002081905550600190506200036e565b600090505b92915050565b600080600084815260200190815260200160002060000160008373ffffffffffffffffffffffffffffffffffffffff1673ffffffffffffffffffffffffffffffffffffffff16815260200190815260200160002060009054906101000a900460ff16905092915050565b600080836001016000848152602001908152602001600020541415905092915050565b8280546200040f90620004b1565b90600052602060002090601f0160209004810192826200043357600085556200047f565b82601f106200044e57805160ff19168380011785556200047f565b828001600101855582156200047f579182015b828111156200047e57825182559160200191906001019062000461565b5b5090506200048e919062000492565b5090565b5b80821115620004ad57600081600090555060010162000493565b5090565b60006002820490506001821680620004ca57607f821691505b60208210811415620004e157620004e0620004e7565b5b50919050565b7f4e487b7100000000000000000000000000000000000000000000000000000000600052602260045260246000fd5b61449380620005266000396000f3fe608060405234801561001057600080fd5b506004361061018e5760003560e01c80636352211e116100de578063a22cb46511610097578063ca15c87311610071578063ca15c873146104df578063d53913931461050f578063d547741f1461052d578063e985e9c5146105495761018e565b8063a22cb46514610477578063b88d4fde14610493578063c87b56dd146104af5761018e565b80636352211e1461037b57806370a08231146103ab5780639010d07c146103db57806391d148541461040b57806395d89b411461043b578063a217fddf146104595761018e565b8063248a9ca31161014b57806336568abe1161012557806336568abe146102e35780633d02d0c9146102ff57806342842e0e1461032f5780634f6ccce71461034b5761018e565b8063248a9ca3146102675780632f2ff15d146102975780632f745c59146102b35761018e565b806301ffc9a71461019357806306fdde03146101c3578063081812fc146101e1578063095ea7b31461021157806318160ddd1461022d57806323b872dd1461024b575b600080fd5b6101ad60048036038101906101a8919061306d565b610579565b6040516101ba91906135bd565b60405180910390f35b6101cb61058b565b6040516101d891906135f3565b60405180910390f35b6101fb60048036038101906101f691906130c7565b61061d565b6040516102089190613556565b60405180910390f35b61022b60048036038101906102269190612f80565b6106a2565b005b6102356107ba565b60405161024291906138b5565b60405180910390f35b61026560048036038101906102609190612e0e565b6107c7565b005b610281600480360381019061027c9190612fc0565b610827565b60405161028e91906135d8565b60405180910390f35b6102b160048036038101906102ac9190612fed565b610846565b005b6102cd60048036038101906102c89190612f80565b61087a565b6040516102da91906138b5565b60405180910390f35b6102fd60048036038101906102f89190612fed565b61091f565b005b61031960048036038101906103149190612f24565b610953565b60405161032691906138b5565b60405180910390f35b61034960048036038101906103449190612e0e565b6109fb565b005b610365600480360381019061036091906130c7565b610a1b565b60405161037291906138b5565b60405180910390f35b610395600480360381019061039091906130c7565b610a8c565b6040516103a29190613556565b60405180910390f35b6103c560048036038101906103c09190612da1565b610b3e565b6040516103d291906138b5565b60405180910390f35b6103f560048036038101906103f0919061302d565b610bf6565b6040516104029190613556565b60405180910390f35b61042560048036038101906104209190612fed565b610c25565b60405161043291906135bd565b60405180910390f35b610443610c8f565b60405161045091906135f3565b60405180910390f35b610461610d21565b60405161046e91906135d8565b60405180910390f35b610491600480360381019061048c9190612ee4565b610d28565b005b6104ad60048036038101906104a89190612e61565b610ea9565b005b6104c960048036038101906104c491906130c7565b610f0b565b6040516104d691906135f3565b60405180910390f35b6104f960048036038101906104f49190612fc0565b61105d565b60405161050691906138b5565b60405180910390f35b610517611081565b60405161052491906135d8565b60405180910390f35b61054760048036038101906105429190612fed565b6110a5565b005b610563600480360381019061055e9190612dce565b6110d9565b60405161057091906135bd565b60405180910390f35b6000610584826111ab565b9050919050565b60606002805461059a90613b99565b80601f01602080910402602001604051908101604052809291908181526020018280546105c690613b99565b80156106135780601f106105e857610100808354040283529160200191610613565b820191906000526020600020905b8154815290600101906020018083116105f657829003601f168201915b5050505050905090565b600061062882611225565b610667576040517f08c379a000000000000000000000000000000000000000000000000000000000815260040161065e906137b5565b60405180910390fd5b6006600083815260200190815260200160002060009054906101000a900473ffffffffffffffffffffffffffffffffffffffff169050919050565b60006106ad82610a8c565b90508073ffffffffffffffffffffffffffffffffffffffff168373ffffffffffffffffffffffffffffffffffffffff16141561071e576040517f08c379a000000000000000000000000000000000000000000000000000000000815260040161071590613815565b60405180910390fd5b8073ffffffffffffffffffffffffffffffffffffffff1661073d611291565b73ffffffffffffffffffffffffffffffffffffffff16148061076c575061076b81610766611291565b6110d9565b5b6107ab576040517f08c379a00000000000000000000000000000000000000000000000000000000081526004016107a2906136f5565b60405180910390fd5b6107b58383611299565b505050565b6000600a80549050905090565b6107d86107d2611291565b82611352565b610817576040517f08c379a000000000000000000000000000000000000000000000000000000000815260040161080e90613835565b60405180910390fd5b610822838383611430565b505050565b6000806000838152602001908152602001600020600101549050919050565b610850828261168c565b610875816001600085815260200190815260200160002061117b90919063ffffffff16565b505050565b600061088583610b3e565b82106108c6576040517f08c379a00000000000000000000000000000000000000000000000000000000081526004016108bd90613635565b60405180910390fd5b600860008473ffffffffffffffffffffffffffffffffffffffff1673ffffffffffffffffffffffffffffffffffffffff168152602001908152602001600020600083815260200190815260200160002054905092915050565b61092982826116b5565b61094e816001600085815260200190815260200160002061173890919063ffffffff16565b505050565b60006109867f9f2df0fed2c77648de5860a4cc508cd0818c85b8b8a1ab4ceeef8d981c8956a6610981611291565b610c25565b6109c5576040517f08c379a00000000000000000000000000000000000000000000000000000000081526004016109bc90613875565b60405180910390fd5b6109cf600d611768565b60006109db600d61177e565b90506109e7848261178c565b6109f181846117aa565b8091505092915050565b610a1683838360405180602001604052806000815250610ea9565b505050565b6000610a256107ba565b8210610a66576040517f08c379a0000000000000000000000000000000000000000000000000000000008152600401610a5d90613855565b60405180910390fd5b600a8281548110610a7a57610a79613d32565b5b90600052602060002001549050919050565b6000806004600084815260200190815260200160002060009054906101000a900473ffffffffffffffffffffffffffffffffffffffff169050600073ffffffffffffffffffffffffffffffffffffffff168173ffffffffffffffffffffffffffffffffffffffff161415610b35576040517f08c379a0000000000000000000000000000000000000000000000000000000008152600401610b2c90613735565b60405180910390fd5b80915050919050565b60008073ffffffffffffffffffffffffffffffffffffffff168273ffffffffffffffffffffffffffffffffffffffff161415610baf576040517f08c379a0000000000000000000000000000000000000000000000000000000008152600401610ba690613715565b60405180910390fd5b600560008373ffffffffffffffffffffffffffffffffffffffff1673ffffffffffffffffffffffffffffffffffffffff168152602001908152602001600020549050919050565b6000610c1d826001600086815260200190815260200160002061181e90919063ffffffff16565b905092915050565b600080600084815260200190815260200160002060000160008373ffffffffffffffffffffffffffffffffffffffff1673ffffffffffffffffffffffffffffffffffffffff16815260200190815260200160002060009054906101000a900460ff16905092915050565b606060038054610c9e90613b99565b80601f0160208091040260200160405190810160405280929190818152602001828054610cca90613b99565b8015610d175780601f10610cec57610100808354040283529160200191610d17565b820191906000526020600020905b815481529060010190602001808311610cfa57829003601f168201915b5050505050905090565b6000801b81565b610d30611291565b73ffffffffffffffffffffffffffffffffffffffff168273ffffffffffffffffffffffffffffffffffffffff161415610d9e576040517f08c379a0000000000000000000000000000000000000000000000000000000008152600401610d95906136b5565b60405180910390fd5b8060076000610dab611291565b73ffffffffffffffffffffffffffffffffffffffff1673ffffffffffffffffffffffffffffffffffffffff16815260200190815260200160002060008473ffffffffffffffffffffffffffffffffffffffff1673ffffffffffffffffffffffffffffffffffffffff16815260200190815260200160002060006101000a81548160ff0219169083151502179055508173ffffffffffffffffffffffffffffffffffffffff16610e58611291565b73ffffffffffffffffffffffffffffffffffffffff167f17307eab39ab6107e8899845ad3d59bd9653f200f220920489ca2b5937696c3183604051610e9d91906135bd565b60405180910390a35050565b610eba610eb4611291565b83611352565b610ef9576040517f08c379a0000000000000000000000000000000000000000000000000000000008152600401610ef090613835565b60405180910390fd5b610f0584848484611838565b50505050565b6060610f1682611225565b610f55576040517f08c379a0000000000000000000000000000000000000000000000000000000008152600401610f4c90613795565b60405180910390fd5b6000600c60008481526020019081526020016000208054610f7590613b99565b80601f0160208091040260200160405190810160405280929190818152602001828054610fa190613b99565b8015610fee5780601f10610fc357610100808354040283529160200191610fee565b820191906000526020600020905b815481529060010190602001808311610fd157829003601f168201915b505050505090506000610fff611894565b9050600081511415611015578192505050611058565b60008251111561104a5780826040516020016110329291906134f8565b60405160208183030381529060405292505050611058565b611053846118ab565b925050505b919050565b600061107a60016000848152602001908152602001600020611952565b9050919050565b7f9f2df0fed2c77648de5860a4cc508cd0818c85b8b8a1ab4ceeef8d981c8956a681565b6110af8282611967565b6110d4816001600085815260200190815260200160002061173890919063ffffffff16565b505050565b6000600760008473ffffffffffffffffffffffffffffffffffffffff1673ffffffffffffffffffffffffffffffffffffffff16815260200190815260200160002060008373ffffffffffffffffffffffffffffffffffffffff1673ffffffffffffffffffffffffffffffffffffffff16815260200190815260200160002060009054906101000a900460ff16905092915050565b6111778282611990565b5050565b60006111a3836000018373ffffffffffffffffffffffffffffffffffffffff1660001b611a70565b905092915050565b60007f780e9d63000000000000000000000000000000000000000000000000000000007bffffffffffffffffffffffffffffffffffffffffffffffffffffffff1916827bffffffffffffffffffffffffffffffffffffffffffffffffffffffff1916148061121e575061121d82611ae0565b5b9050919050565b60008073ffffffffffffffffffffffffffffffffffffffff166004600084815260200190815260200160002060009054906101000a900473ffffffffffffffffffffffffffffffffffffffff1673ffffffffffffffffffffffffffffffffffffffff1614159050919050565b600033905090565b816006600083815260200190815260200160002060006101000a81548173ffffffffffffffffffffffffffffffffffffffff021916908373ffffffffffffffffffffffffffffffffffffffff160217905550808273ffffffffffffffffffffffffffffffffffffffff1661130c83610a8c565b73ffffffffffffffffffffffffffffffffffffffff167f8c5be1e5ebec7d5bd14f71427d1e84f3dd0314c0f7b2291e5b200ac8c7c3b92560405160405180910390a45050565b600061135d82611225565b61139c576040517f08c379a0000000000000000000000000000000000000000000000000000000008152600401611393906136d5565b60405180910390fd5b60006113a783610a8c565b90508073ffffffffffffffffffffffffffffffffffffffff168473ffffffffffffffffffffffffffffffffffffffff16148061141657508373ffffffffffffffffffffffffffffffffffffffff166113fe8461061d565b73ffffffffffffffffffffffffffffffffffffffff16145b80611427575061142681856110d9565b5b91505092915050565b8273ffffffffffffffffffffffffffffffffffffffff1661145082610a8c565b73ffffffffffffffffffffffffffffffffffffffff16146114a6576040517f08c379a000000000000000000000000000000000000000000000000000000000815260040161149d906137d5565b60405180910390fd5b600073ffffffffffffffffffffffffffffffffffffffff168273ffffffffffffffffffffffffffffffffffffffff161415611516576040517f08c379a000000000000000000000000000000000000000000000000000000000815260040161150d90613695565b60405180910390fd5b611521838383611bc2565b61152c600082611299565b6001600560008573ffffffffffffffffffffffffffffffffffffffff1673ffffffffffffffffffffffffffffffffffffffff168152602001908152602001600020600082825461157c9190613a7b565b925050819055506001600560008473ffffffffffffffffffffffffffffffffffffffff1673ffffffffffffffffffffffffffffffffffffffff16815260200190815260200160002060008282546115d3919061399a565b92505081905550816004600083815260200190815260200160002060006101000a81548173ffffffffffffffffffffffffffffffffffffffff021916908373ffffffffffffffffffffffffffffffffffffffff160217905550808273ffffffffffffffffffffffffffffffffffffffff168473ffffffffffffffffffffffffffffffffffffffff167fddf252ad1be2c89b69c2b068fc378daa952ba7f163c4a11628f55a4df523b3ef60405160405180910390a4505050565b61169582610827565b6116a6816116a1611291565b611cd6565b6116b08383611990565b505050565b6116bd611291565b73ffffffffffffffffffffffffffffffffffffffff168173ffffffffffffffffffffffffffffffffffffffff161461172a576040517f08c379a000000000000000000000000000000000000000000000000000000000815260040161172190613895565b60405180910390fd5b6117348282611d73565b5050565b6000611760836000018373ffffffffffffffffffffffffffffffffffffffff1660001b611e54565b905092915050565b6001816000016000828254019250508190555050565b600081600001549050919050565b6117a6828260405180602001604052806000815250611f68565b5050565b6117b382611225565b6117f2576040517f08c379a00000000000000000000000000000000000000000000000000000000081526004016117e990613755565b60405180910390fd5b80600c60008481526020019081526020016000209080519060200190611819929190612ba0565b505050565b600061182d8360000183611fc3565b60001c905092915050565b611843848484611430565b61184f84848484611fee565b61188e576040517f08c379a000000000000000000000000000000000000000000000000000000000815260040161188590613655565b60405180910390fd5b50505050565b606060405180602001604052806000815250905090565b60606118b682611225565b6118f5576040517f08c379a00000000000000000000000000000000000000000000000000000000081526004016118ec906137f5565b60405180910390fd5b60006118ff611894565b9050600081511161191f576040518060200160405280600081525061194a565b8061192984612185565b60405160200161193a9291906134f8565b6040516020818303038152906040525b915050919050565b6000611960826000016122e6565b9050919050565b61197082610827565b6119818161197c611291565b611cd6565b61198b8383611d73565b505050565b61199a8282610c25565b611a6c57600160008084815260200190815260200160002060000160008373ffffffffffffffffffffffffffffffffffffffff1673ffffffffffffffffffffffffffffffffffffffff16815260200190815260200160002060006101000a81548160ff021916908315150217905550611a11611291565b73ffffffffffffffffffffffffffffffffffffffff168173ffffffffffffffffffffffffffffffffffffffff16837f2f8788117e7eff1d82e926ec794901d17c78024a50270940304540a733656f0d60405160405180910390a45b5050565b6000611a7c83836122f7565b611ad5578260000182908060018154018082558091505060019003906000526020600020016000909190919091505582600001805490508360010160008481526020019081526020016000208190555060019050611ada565b600090505b92915050565b60007f80ac58cd000000000000000000000000000000000000000000000000000000007bffffffffffffffffffffffffffffffffffffffffffffffffffffffff1916827bffffffffffffffffffffffffffffffffffffffffffffffffffffffff19161480611bab57507f5b5e139f000000000000000000000000000000000000000000000000000000007bffffffffffffffffffffffffffffffffffffffffffffffffffffffff1916827bffffffffffffffffffffffffffffffffffffffffffffffffffffffff1916145b80611bbb5750611bba8261231a565b5b9050919050565b611bcd838383612394565b600073ffffffffffffffffffffffffffffffffffffffff168373ffffffffffffffffffffffffffffffffffffffff161415611c1057611c0b81612399565b611c4f565b8173ffffffffffffffffffffffffffffffffffffffff168373ffffffffffffffffffffffffffffffffffffffff1614611c4e57611c4d83826123e2565b5b5b600073ffffffffffffffffffffffffffffffffffffffff168273ffffffffffffffffffffffffffffffffffffffff161415611c9257611c8d8161254f565b611cd1565b8273ffffffffffffffffffffffffffffffffffffffff168273ffffffffffffffffffffffffffffffffffffffff1614611cd057611ccf8282612620565b5b5b505050565b611ce08282610c25565b611d6f57611d058173ffffffffffffffffffffffffffffffffffffffff16601461269f565b611d138360001c602061269f565b604051602001611d2492919061351c565b6040516020818303038152906040526040517f08c379a0000000000000000000000000000000000000000000000000000000008152600401611d6691906135f3565b60405180910390fd5b5050565b611d7d8282610c25565b15611e5057600080600084815260200190815260200160002060000160008373ffffffffffffffffffffffffffffffffffffffff1673ffffffffffffffffffffffffffffffffffffffff16815260200190815260200160002060006101000a81548160ff021916908315150217905550611df5611291565b73ffffffffffffffffffffffffffffffffffffffff168173ffffffffffffffffffffffffffffffffffffffff16837ff6391f5c32d9c69d2a47ea670b442974b53935d1edc7fd64eb21e047a839171b60405160405180910390a45b5050565b60008083600101600084815260200190815260200160002054905060008114611f5c576000600182611e869190613a7b565b9050600060018660000180549050611e9e9190613a7b565b9050818114611f0d576000866000018281548110611ebf57611ebe613d32565b5b9060005260206000200154905080876000018481548110611ee357611ee2613d32565b5b90600052602060002001819055508387600101600083815260200190815260200160002081905550505b85600001805480611f2157611f20613d03565b5b600190038181906000526020600020016000905590558560010160008681526020019081526020016000206000905560019350505050611f62565b60009150505b92915050565b611f7283836128db565b611f7f6000848484611fee565b611fbe576040517f08c379a0000000000000000000000000000000000000000000000000000000008152600401611fb590613655565b60405180910390fd5b505050565b6000826000018281548110611fdb57611fda613d32565b5b9060005260206000200154905092915050565b600061200f8473ffffffffffffffffffffffffffffffffffffffff16612aa9565b15612178578373ffffffffffffffffffffffffffffffffffffffff1663150b7a02612038611291565b8786866040518563ffffffff1660e01b815260040161205a9493929190613571565b602060405180830381600087803b15801561207457600080fd5b505af19250505080156120a557506040513d601f19601f820116820180604052508101906120a2919061309a565b60015b612128573d80600081146120d5576040519150601f19603f3d011682016040523d82523d6000602084013e6120da565b606091505b50600081511415612120576040517f08c379a000000000000000000000000000000000000000000000000000000000815260040161211790613655565b60405180910390fd5b805181602001fd5b63150b7a0260e01b7bffffffffffffffffffffffffffffffffffffffffffffffffffffffff1916817bffffffffffffffffffffffffffffffffffffffffffffffffffffffff19161491505061217d565b600190505b949350505050565b606060008214156121cd576040518060400160405280600181526020017f300000000000000000000000000000000000000000000000000000000000000081525090506122e1565b600082905060005b600082146121ff5780806121e890613bfc565b915050600a826121f891906139f0565b91506121d5565b60008167ffffffffffffffff81111561221b5761221a613d61565b5b6040519080825280601f01601f19166020018201604052801561224d5781602001600182028036833780820191505090505b5090505b600085146122da576001826122669190613a7b565b9150600a856122759190613c45565b6030612281919061399a565b60f81b81838151811061229757612296613d32565b5b60200101907effffffffffffffffffffffffffffffffffffffffffffffffffffffffffffff1916908160001a905350600a856122d391906139f0565b9450612251565b8093505050505b919050565b600081600001805490509050919050565b600080836001016000848152602001908152602001600020541415905092915050565b60007f5a05180f000000000000000000000000000000000000000000000000000000007bffffffffffffffffffffffffffffffffffffffffffffffffffffffff1916827bffffffffffffffffffffffffffffffffffffffffffffffffffffffff1916148061238d575061238c82612abc565b5b9050919050565b505050565b600a80549050600b600083815260200190815260200160002081905550600a81908060018154018082558091505060019003906000526020600020016000909190919091505550565b600060016123ef84610b3e565b6123f99190613a7b565b90506000600960008481526020019081526020016000205490508181146124de576000600860008673ffffffffffffffffffffffffffffffffffffffff1673ffffffffffffffffffffffffffffffffffffffff168152602001908152602001600020600084815260200190815260200160002054905080600860008773ffffffffffffffffffffffffffffffffffffffff1673ffffffffffffffffffffffffffffffffffffffff168152602001908152602001600020600084815260200190815260200160002081905550816009600083815260200190815260200160002081905550505b6009600084815260200190815260200160002060009055600860008573ffffffffffffffffffffffffffffffffffffffff1673ffffffffffffffffffffffffffffffffffffffff16815260200190815260200160002060008381526020019081526020016000206000905550505050565b60006001600a805490506125639190613a7b565b90506000600b60008481526020019081526020016000205490506000600a838154811061259357612592613d32565b5b9060005260206000200154905080600a83815481106125b5576125b4613d32565b5b906000526020600020018190555081600b600083815260200190815260200160002081905550600b600085815260200190815260200160002060009055600a80548061260457612603613d03565b5b6001900381819060005260206000200160009055905550505050565b600061262b83610b3e565b905081600860008573ffffffffffffffffffffffffffffffffffffffff1673ffffffffffffffffffffffffffffffffffffffff168152602001908152602001600020600083815260200190815260200160002081905550806009600084815260200190815260200160002081905550505050565b6060600060028360026126b29190613a21565b6126bc919061399a565b67ffffffffffffffff8111156126d5576126d4613d61565b5b6040519080825280601f01601f1916602001820160405280156127075781602001600182028036833780820191505090505b5090507f30000000000000000000000000000000000000000000000000000000000000008160008151811061273f5761273e613d32565b5b60200101907effffffffffffffffffffffffffffffffffffffffffffffffffffffffffffff1916908160001a9053507f7800000000000000000000000000000000000000000000000000000000000000816001815181106127a3576127a2613d32565b5b60200101907effffffffffffffffffffffffffffffffffffffffffffffffffffffffffffff1916908160001a905350600060018460026127e39190613a21565b6127ed919061399a565b90505b600181111561288d577f3031323334353637383961626364656600000000000000000000000000000000600f86166010811061282f5761282e613d32565b5b1a60f81b82828151811061284657612845613d32565b5b60200101907effffffffffffffffffffffffffffffffffffffffffffffffffffffffffffff1916908160001a905350600485901c94508061288690613b6f565b90506127f0565b50600084146128d1576040517f08c379a00000000000000000000000000000000000000000000000000000000081526004016128c890613615565b60405180910390fd5b8091505092915050565b600073ffffffffffffffffffffffffffffffffffffffff168273ffffffffffffffffffffffffffffffffffffffff16141561294b576040517f08c379a000000000000000000000000000000000000000000000000000000000815260040161294290613775565b60405180910390fd5b61295481611225565b15612994576040517f08c379a000000000000000000000000000000000000000000000000000000000815260040161298b90613675565b60405180910390fd5b6129a060008383611bc2565b6001600560008473ffffffffffffffffffffffffffffffffffffffff1673ffffffffffffffffffffffffffffffffffffffff16815260200190815260200160002060008282546129f0919061399a565b92505081905550816004600083815260200190815260200160002060006101000a81548173ffffffffffffffffffffffffffffffffffffffff021916908373ffffffffffffffffffffffffffffffffffffffff160217905550808273ffffffffffffffffffffffffffffffffffffffff16600073ffffffffffffffffffffffffffffffffffffffff167fddf252ad1be2c89b69c2b068fc378daa952ba7f163c4a11628f55a4df523b3ef60405160405180910390a45050565b600080823b905060008111915050919050565b60007f7965db0b000000000000000000000000000000000000000000000000000000007bffffffffffffffffffffffffffffffffffffffffffffffffffffffff1916827bffffffffffffffffffffffffffffffffffffffffffffffffffffffff19161480612b2f5750612b2e82612b36565b5b9050919050565b60007f01ffc9a7000000000000000000000000000000000000000000000000000000007bffffffffffffffffffffffffffffffffffffffffffffffffffffffff1916827bffffffffffffffffffffffffffffffffffffffffffffffffffffffff1916149050919050565b828054612bac90613b99565b90600052602060002090601f016020900481019282612bce5760008555612c15565b82601f10612be757805160ff1916838001178555612c15565b82800160010185558215612c15579182015b82811115612c14578251825591602001919060010190612bf9565b5b509050612c229190612c26565b5090565b5b80821115612c3f576000816000905550600101612c27565b5090565b6000612c56612c51846138f5565b6138d0565b905082815260208101848484011115612c7257612c71613d95565b5b612c7d848285613b2d565b509392505050565b6000612c98612c9384613926565b6138d0565b905082815260208101848484011115612cb457612cb3613d95565b5b612cbf848285613b2d565b509392505050565b600081359050612cd6816143ea565b92915050565b600081359050612ceb81614401565b92915050565b600081359050612d0081614418565b92915050565b600081359050612d158161442f565b92915050565b600081519050612d2a8161442f565b92915050565b600082601f830112612d4557612d44613d90565b5b8135612d55848260208601612c43565b91505092915050565b600082601f830112612d7357612d72613d90565b5b8135612d83848260208601612c85565b91505092915050565b600081359050612d9b81614446565b92915050565b600060208284031215612db757612db6613d9f565b5b6000612dc584828501612cc7565b91505092915050565b60008060408385031215612de557612de4613d9f565b5b6000612df385828601612cc7565b9250506020612e0485828601612cc7565b9150509250929050565b600080600060608486031215612e2757612e26613d9f565b5b6000612e3586828701612cc7565b9350506020612e4686828701612cc7565b9250506040612e5786828701612d8c565b9150509250925092565b60008060008060808587031215612e7b57612e7a613d9f565b5b6000612e8987828801612cc7565b9450506020612e9a87828801612cc7565b9350506040612eab87828801612d8c565b925050606085013567ffffffffffffffff811115612ecc57612ecb613d9a565b5b612ed887828801612d30565b91505092959194509250565b60008060408385031215612efb57612efa613d9f565b5b6000612f0985828601612cc7565b9250506020612f1a85828601612cdc565b9150509250929050565b60008060408385031215612f3b57612f3a613d9f565b5b6000612f4985828601612cc7565b925050602083013567ffffffffffffffff811115612f6a57612f69613d9a565b5b612f7685828601612d5e565b9150509250929050565b60008060408385031215612f9757612f96613d9f565b5b6000612fa585828601612cc7565b9250506020612fb685828601612d8c565b9150509250929050565b600060208284031215612fd657612fd5613d9f565b5b6000612fe484828501612cf1565b91505092915050565b6000806040838503121561300457613003613d9f565b5b600061301285828601612cf1565b925050602061302385828601612cc7565b9150509250929050565b6000806040838503121561304457613043613d9f565b5b600061305285828601612cf1565b925050602061306385828601612d8c565b9150509250929050565b60006020828403121561308357613082613d9f565b5b600061309184828501612d06565b91505092915050565b6000602082840312156130b0576130af613d9f565b5b60006130be84828501612d1b565b91505092915050565b6000602082840312156130dd576130dc613d9f565b5b60006130eb84828501612d8c565b91505092915050565b6130fd81613aaf565b82525050565b61310c81613ac1565b82525050565b61311b81613acd565b82525050565b600061312c82613957565b613136818561396d565b9350613146818560208601613b3c565b61314f81613da4565b840191505092915050565b600061316582613962565b61316f818561397e565b935061317f818560208601613b3c565b61318881613da4565b840191505092915050565b600061319e82613962565b6131a8818561398f565b93506131b8818560208601613b3c565b80840191505092915050565b60006131d160208361397e565b91506131dc82613db5565b602082019050919050565b60006131f4602b8361397e565b91506131ff82613dde565b604082019050919050565b600061321760328361397e565b915061322282613e2d565b604082019050919050565b600061323a601c8361397e565b915061324582613e7c565b602082019050919050565b600061325d60248361397e565b915061326882613ea5565b604082019050919050565b600061328060198361397e565b915061328b82613ef4565b602082019050919050565b60006132a3602c8361397e565b91506132ae82613f1d565b604082019050919050565b60006132c660388361397e565b91506132d182613f6c565b604082019050919050565b60006132e9602a8361397e565b91506132f482613fbb565b604082019050919050565b600061330c60298361397e565b91506133178261400a565b604082019050919050565b600061332f602e8361397e565b915061333a82614059565b604082019050919050565b600061335260208361397e565b915061335d826140a8565b602082019050919050565b600061337560318361397e565b9150613380826140d1565b604082019050919050565b6000613398602c8361397e565b91506133a382614120565b604082019050919050565b60006133bb60298361397e565b91506133c68261416f565b604082019050919050565b60006133de602f8361397e565b91506133e9826141be565b604082019050919050565b600061340160218361397e565b915061340c8261420d565b604082019050919050565b600061342460318361397e565b915061342f8261425c565b604082019050919050565b6000613447602c8361397e565b9150613452826142ab565b604082019050919050565b600061346a60178361398f565b9150613475826142fa565b601782019050919050565b600061348d603d8361397e565b915061349882614323565b604082019050919050565b60006134b060118361398f565b91506134bb82614372565b601182019050919050565b60006134d3602f8361397e565b91506134de8261439b565b604082019050919050565b6134f281613b23565b82525050565b60006135048285613193565b91506135108284613193565b91508190509392505050565b60006135278261345d565b91506135338285613193565b915061353e826134a3565b915061354a8284613193565b91508190509392505050565b600060208201905061356b60008301846130f4565b92915050565b600060808201905061358660008301876130f4565b61359360208301866130f4565b6135a060408301856134e9565b81810360608301526135b28184613121565b905095945050505050565b60006020820190506135d26000830184613103565b92915050565b60006020820190506135ed6000830184613112565b92915050565b6000602082019050818103600083015261360d818461315a565b905092915050565b6000602082019050818103600083015261362e816131c4565b9050919050565b6000602082019050818103600083015261364e816131e7565b9050919050565b6000602082019050818103600083015261366e8161320a565b9050919050565b6000602082019050818103600083015261368e8161322d565b9050919050565b600060208201905081810360008301526136ae81613250565b9050919050565b600060208201905081810360008301526136ce81613273565b9050919050565b600060208201905081810360008301526136ee81613296565b9050919050565b6000602082019050818103600083015261370e816132b9565b9050919050565b6000602082019050818103600083015261372e816132dc565b9050919050565b6000602082019050818103600083015261374e816132ff565b9050919050565b6000602082019050818103600083015261376e81613322565b9050919050565b6000602082019050818103600083015261378e81613345565b9050919050565b600060208201905081810360008301526137ae81613368565b9050919050565b600060208201905081810360008301526137ce8161338b565b9050919050565b600060208201905081810360008301526137ee816133ae565b9050919050565b6000602082019050818103600083015261380e816133d1565b9050919050565b6000602082019050818103600083015261382e816133f4565b9050919050565b6000602082019050818103600083015261384e81613417565b9050919050565b6000602082019050818103600083015261386e8161343a565b9050919050565b6000602082019050818103600083015261388e81613480565b9050919050565b600060208201905081810360008301526138ae816134c6565b9050919050565b60006020820190506138ca60008301846134e9565b92915050565b60006138da6138eb565b90506138e68282613bcb565b919050565b6000604051905090565b600067ffffffffffffffff8211156139105761390f613d61565b5b61391982613da4565b9050602081019050919050565b600067ffffffffffffffff82111561394157613940613d61565b5b61394a82613da4565b9050602081019050919050565b600081519050919050565b600081519050919050565b600082825260208201905092915050565b600082825260208201905092915050565b600081905092915050565b60006139a582613b23565b91506139b083613b23565b9250827fffffffffffffffffffffffffffffffffffffffffffffffffffffffffffffffff038211156139e5576139e4613c76565b5b828201905092915050565b60006139fb82613b23565b9150613a0683613b23565b925082613a1657613a15613ca5565b5b828204905092915050565b6000613a2c82613b23565b9150613a3783613b23565b9250817fffffffffffffffffffffffffffffffffffffffffffffffffffffffffffffffff0483118215151615613a7057613a6f613c76565b5b828202905092915050565b6000613a8682613b23565b9150613a9183613b23565b925082821015613aa457613aa3613c76565b5b828203905092915050565b6000613aba82613b03565b9050919050565b60008115159050919050565b6000819050919050565b60007fffffffff0000000000000000000000000000000000000000000000000000000082169050919050565b600073ffffffffffffffffffffffffffffffffffffffff82169050919050565b6000819050919050565b82818337600083830152505050565b60005b83811015613b5a578082015181840152602081019050613b3f565b83811115613b69576000848401525b50505050565b6000613b7a82613b23565b91506000821415613b8e57613b8d613c76565b5b600182039050919050565b60006002820490506001821680613bb157607f821691505b60208210811415613bc557613bc4613cd4565b5b50919050565b613bd482613da4565b810181811067ffffffffffffffff82111715613bf357613bf2613d61565b5b80604052505050565b6000613c0782613b23565b91507fffffffffffffffffffffffffffffffffffffffffffffffffffffffffffffffff821415613c3a57613c39613c76565b5b600182019050919050565b6000613c5082613b23565b9150613c5b83613b23565b925082613c6b57613c6a613ca5565b5b828206905092915050565b7f4e487b7100000000000000000000000000000000000000000000000000000000600052601160045260246000fd5b7f4e487b7100000000000000000000000000000000000000000000000000000000600052601260045260246000fd5b7f4e487b7100000000000000000000000000000000000000000000000000000000600052602260045260246000fd5b7f4e487b7100000000000000000000000000000000000000000000000000000000600052603160045260246000fd5b7f4e487b7100000000000000000000000000000000000000000000000000000000600052603260045260246000fd5b7f4e487b7100000000000000000000000000000000000000000000000000000000600052604160045260246000fd5b600080fd5b600080fd5b600080fd5b600080fd5b6000601f19601f8301169050919050565b7f537472696e67733a20686578206c656e67746820696e73756666696369656e74600082015250565b7f455243373231456e756d657261626c653a206f776e657220696e646578206f7560008201527f74206f6620626f756e6473000000000000000000000000000000000000000000602082015250565b7f4552433732313a207472616e7366657220746f206e6f6e20455243373231526560008201527f63656976657220696d706c656d656e7465720000000000000000000000000000602082015250565b7f4552433732313a20746f6b656e20616c7265616479206d696e74656400000000600082015250565b7f4552433732313a207472616e7366657220746f20746865207a65726f2061646460008201527f7265737300000000000000000000000000000000000000000000000000000000602082015250565b7f4552433732313a20617070726f766520746f2063616c6c657200000000000000600082015250565b7f4552433732313a206f70657261746f7220717565727920666f72206e6f6e657860008201527f697374656e7420746f6b656e0000000000000000000000000000000000000000602082015250565b7f4552433732313a20617070726f76652063616c6c6572206973206e6f74206f7760008201527f6e6572206e6f7220617070726f76656420666f7220616c6c0000000000000000602082015250565b7f4552433732313a2062616c616e636520717565727920666f7220746865207a6560008201527f726f206164647265737300000000000000000000000000000000000000000000602082015250565b7f4552433732313a206f776e657220717565727920666f72206e6f6e657869737460008201527f656e7420746f6b656e0000000000000000000000000000000000000000000000602082015250565b7f45524337323155524953746f726167653a2055524920736574206f66206e6f6e60008201527f6578697374656e7420746f6b656e000000000000000000000000000000000000602082015250565b7f4552433732313a206d696e7420746f20746865207a65726f2061646472657373600082015250565b7f45524337323155524953746f726167653a2055524920717565727920666f722060008201527f6e6f6e6578697374656e7420746f6b656e000000000000000000000000000000602082015250565b7f4552433732313a20617070726f76656420717565727920666f72206e6f6e657860008201527f697374656e7420746f6b656e0000000000000000000000000000000000000000602082015250565b7f4552433732313a207472616e73666572206f6620746f6b656e2074686174206960008201527f73206e6f74206f776e0000000000000000000000000000000000000000000000602082015250565b7f4552433732314d657461646174613a2055524920717565727920666f72206e6f60008201527f6e6578697374656e7420746f6b656e0000000000000000000000000000000000602082015250565b7f4552433732313a20617070726f76616c20746f2063757272656e74206f776e6560008201527f7200000000000000000000000000000000000000000000000000000000000000602082015250565b7f4552433732313a207472616e736665722063616c6c6572206973206e6f74206f60008201527f776e6572206e6f7220617070726f766564000000000000000000000000000000602082015250565b7f455243373231456e756d657261626c653a20676c6f62616c20696e646578206f60008201527f7574206f6620626f756e64730000000000000000000000000000000000000000602082015250565b7f416363657373436f6e74726f6c3a206163636f756e7420000000000000000000600082015250565b7f4552433732315072657365744d696e7465725061757365724175746f49643a2060008201527f6d7573742068617665206d696e74657220726f6c6520746f206d696e74000000602082015250565b7f206973206d697373696e6720726f6c6520000000000000000000000000000000600082015250565b7f416363657373436f6e74726f6c3a2063616e206f6e6c792072656e6f756e636560008201527f20726f6c657320666f722073656c660000000000000000000000000000000000602082015250565b6143f381613aaf565b81146143fe57600080fd5b50565b61440a81613ac1565b811461441557600080fd5b50565b61442181613acd565b811461442c57600080fd5b50565b61443881613ad7565b811461444357600080fd5b50565b61444f81613b23565b811461445a57600080fd5b5056fea2646970667358221220b13256395d845ecaf67762ba7b5a2b9842e967333f6d0c6f79ddbd4cee21c5cf64736f6c63430008060033",
  "immutableReferences": {},
  "source": "pragma solidity ^0.8.0;\n\nimport \"@openzeppelin/contracts/token/ERC721/extensions/ERC721Enumerable.sol\";\nimport \"@openzeppelin/contracts/utils/Counters.sol\";\nimport \"@openzeppelin/contracts/access/AccessControlEnumerable.sol\";\n\ncontract CodeNFT is Context, AccessControlEnumerable, ERC721Enumerable {\n    using Strings for uint256;\n    mapping(uint256 => string) private _tokenURIs;\n\n     using Counters for Counters.Counter;\n\n    bytes32 public constant MINTER_ROLE = keccak256(\"MINTER_ROLE\");\n\n    Counters.Counter private _tokenIdTracker;\n\n    string private _baseTokenURI;\n\n    constructor(\n    ) ERC721(\"Code\", \"CODE\") {\n        _baseTokenURI = \"ipfs://\";\n\n        _setupRole(DEFAULT_ADMIN_ROLE, _msgSender());\n        _setupRole(MINTER_ROLE, _msgSender());\n    }\n\n    function mintToken(address client, string memory repoURI)\n        public\n        returns (uint256)\n    {\n        require(hasRole(MINTER_ROLE, _msgSender()), \"ERC721PresetMinterPauserAutoId: must have minter role to mint\");\n        _tokenIdTracker.increment();\n\n        uint256 id = _tokenIdTracker.current();\n        _safeMint(client, id);\n        _setTokenURI(id, repoURI);\n\n        return id;\n    }\n\n    function tokenURI(uint256 tokenId)\n        public\n        view\n        virtual\n        override\n        returns (string memory)\n    {\n        require(\n            _exists(tokenId),\n            \"ERC721URIStorage: URI query for nonexistent token\"\n        );\n\n        string memory _tokenURI = _tokenURIs[tokenId];\n        string memory base = _baseURI();\n\n        if (bytes(base).length == 0) {\n            return _tokenURI;\n        }\n        if (bytes(_tokenURI).length > 0) {\n            return string(abi.encodePacked(base, _tokenURI));\n        }\n\n        return super.tokenURI(tokenId);\n    }\n\n    function _setTokenURI(uint256 tokenId, string memory _tokenURI)\n        internal\n        virtual\n    {\n        require(\n            _exists(tokenId),\n            \"ERC721URIStorage: URI set of nonexistent token\"\n        );\n        _tokenURIs[tokenId] = _tokenURI;\n    }\n\n    function _burn(uint256 tokenId) internal virtual override {\n        super._burn(tokenId);\n\n        if (bytes(_tokenURIs[tokenId]).length != 0) {\n            delete _tokenURIs[tokenId];\n        }\n    }\n    function supportsInterface(bytes4 interfaceId)\n        public\n        view\n        virtual\n        override(AccessControlEnumerable, ERC721Enumerable)\n        returns (bool)\n    {\n        return super.supportsInterface(interfaceId);\n    }\n}\n",
  "sourcePath": "/Users/maadhav/Documents/web3Projects/codenft/contracts/CodeNFT.sol",
  "compiler": {
    "name": "solc",
    "version": "0.8.6+commit.11564f7e.Emscripten.clang"
  },
  "schemaVersion": "3.4.1",
  "updatedAt": "2021-07-22T08:54:00.141Z",
  "networkType": "ethereum",
  "devdoc": {
    "kind": "dev",
    "methods": {
      "approve(address,uint256)": {
        "details": "See {IERC721-approve}."
      },
      "balanceOf(address)": {
        "details": "See {IERC721-balanceOf}."
      },
      "getApproved(uint256)": {
        "details": "See {IERC721-getApproved}."
      },
      "getRoleAdmin(bytes32)": {
        "details": "Returns the admin role that controls `role`. See {grantRole} and {revokeRole}. To change a role's admin, use {_setRoleAdmin}."
      },
      "getRoleMember(bytes32,uint256)": {
        "details": "Returns one of the accounts that have `role`. `index` must be a value between 0 and {getRoleMemberCount}, non-inclusive. Role bearers are not sorted in any particular way, and their ordering may change at any point. WARNING: When using {getRoleMember} and {getRoleMemberCount}, make sure you perform all queries on the same block. See the following https://forum.openzeppelin.com/t/iterating-over-elements-on-enumerableset-in-openzeppelin-contracts/2296[forum post] for more information."
      },
      "getRoleMemberCount(bytes32)": {
        "details": "Returns the number of accounts that have `role`. Can be used together with {getRoleMember} to enumerate all bearers of a role."
      },
      "grantRole(bytes32,address)": {
        "details": "Overload {grantRole} to track enumerable memberships"
      },
      "hasRole(bytes32,address)": {
        "details": "Returns `true` if `account` has been granted `role`."
      },
      "isApprovedForAll(address,address)": {
        "details": "See {IERC721-isApprovedForAll}."
      },
      "name()": {
        "details": "See {IERC721Metadata-name}."
      },
      "ownerOf(uint256)": {
        "details": "See {IERC721-ownerOf}."
      },
      "renounceRole(bytes32,address)": {
        "details": "Overload {renounceRole} to track enumerable memberships"
      },
      "revokeRole(bytes32,address)": {
        "details": "Overload {revokeRole} to track enumerable memberships"
      },
      "safeTransferFrom(address,address,uint256)": {
        "details": "See {IERC721-safeTransferFrom}."
      },
      "safeTransferFrom(address,address,uint256,bytes)": {
        "details": "See {IERC721-safeTransferFrom}."
      },
      "setApprovalForAll(address,bool)": {
        "details": "See {IERC721-setApprovalForAll}."
      },
      "symbol()": {
        "details": "See {IERC721Metadata-symbol}."
      },
      "tokenByIndex(uint256)": {
        "details": "See {IERC721Enumerable-tokenByIndex}."
      },
      "tokenOfOwnerByIndex(address,uint256)": {
        "details": "See {IERC721Enumerable-tokenOfOwnerByIndex}."
      },
      "tokenURI(uint256)": {
        "details": "See {IERC721Metadata-tokenURI}."
      },
      "totalSupply()": {
        "details": "See {IERC721Enumerable-totalSupply}."
      },
      "transferFrom(address,address,uint256)": {
        "details": "See {IERC721-transferFrom}."
      }
    },
    "version": 1
  },
  "userdoc": {
    "kind": "user",
    "methods": {},
    "version": 1
  }
}